:020000040800F2
:100000000000082431520008055000080D50000877
:10001000155000081D500008255000080000000081
:100020000000000000000000000000002D5000084B
:100030003B500008000000004950000857500008DD
:100040008152000881520008815200088152000844
:100050008152000881520008815200088152000834
:100060008152000881520008815200088152000824
:100070008152000881520008815200088152000814
:100080008152000881520008815200088152000804
:1000900081520008815200088152000881520008F4
:1000A00081520008815200088152000881520008E4
:1000B00081520008815200088152000881520008D4
:1000C00081520008815200088152000881520008C4
:1000D00081520008815200088152000881520008B4
:1000E000815200088152000800000000815200087F
:1000F0008152000881520008815200088152000894
:10010000815200086950000881520008815200089D
:100110008152000881520008815200088152000873
:100120008152000881520008815200088152000863
:100130008152000881520008815200088152000853
:1001400081520008815200080000000000000000F9
:100150008152000881520008815200088152000833
:100160008152000881520008815200088152000823
:1001700081520008815200088152000800000000EE
:100180008152000881520008815200088152000803
:1001900081520008815200088152000881520008F3
:1001A00081520008815200088152000881520008E3
:1001B00081520008815200088152000881520008D3
:1001C00081520008815200088152000881520008C3
:1001D000815200087D5000088152000881520008B9
:1001E00081520008815200088152000881520008A3
:1001F0008152000881520008815200088152000893
:100200008152000881520008815200088152000882
:100210008152000881520008815200088152000872
:10022000815200088152000881520008000000003D
:100230009150000881520008815200088152000844
:100240008152000881520008815200088152000842
:100250008152000881520008815200088152000832
:100260008152000881520008815200088152000822
:100270008152000881520008815200088152000812
:1002800081520008815200088152000800000000DD
:080290008152000881520008B0
:1002A00010B5054C237833B9044B13B10448AFF3B0
:1002B00000800123237010BDD8040024000000003A
:1002C0007CC3010808B5034B1BB103490348AFF3D6
:1002D000008008BD00000000DC0400247CC301088D
:1002E00010F8012B11F8013B012A28BF9A42F7D0E0
:1002F000D01A70470000000000000000000000005D
:1003000001F0FF01102A2BDB10F0070F08D010F8C6
:10031000013B013A8B422DD010F0070F42B3F6D1CA
:10032000F0B441EA012141EA014122F007047FF0E3
:1003300000070023F0E80256083C85EA010586EA3A
:10034000010685FA47F5A3FA87F586FA47F6A5FA76
:1003500087F68EB9EED1F0BC01F0FF0102F0070282
:1003600032B110F8013B013A83EA010313B1F8D12D
:100370000020704701387047002D06BF354603380E
:10038000073815F0010F07D1013015F4807F02BF47
:10039000013015F4C03F0130F0BC0138704700BF98
:1003A000034613F8012B002AFBD1181A01387047B5
:1003B00081F0004102E000BF83F0004330B54FEA16
:1003C00041044FEA430594EA050F08BF90EA020F83
:1003D0001FBF54EA000C55EA020C7FEA645C7FEA16
:1003E000655C00F0E2804FEA5454D4EB5555B8BF39
:1003F0006D420CDD2C4480EA020281EA030382EAAA
:10040000000083EA010180EA020281EA0303362D3B
:1004100088BF30BD11F0004F4FEA01314FF4801C0E
:100420004CEA113102D0404261EB410113F0004F20
:100430004FEA03334CEA133302D0524263EB4303D7
:1004400094EA050F00F0A780A4F10104D5F1200E75
:100450000DDB02FA0EFC22FA05F2801841F10001D0
:1004600003FA0EF2801843FA05F359410EE0A5F1A4
:1004700020050EF1200E012A03FA0EFC28BF4CF0D5
:10048000020C43FA05F3C01851EBE37101F000458B
:1004900007D54FF0000EDCF1000C7EEB00006EEB98
:1004A0000101B1F5801F1BD3B1F5001F0CD3490822
:1004B0005FEA30004FEA3C0C04F101044FEA445279
:1004C00012F5800F80F09A80BCF1004F08BF5FEA00
:1004D000500C50F1000041EB045141EA050130BDE0
:1004E0005FEA4C0C404141EB0101013C28BFB1F5F2
:1004F000801FE9D291F0000F04BF01460020B1FA3D
:1005000081F308BF2033A3F10B03B3F120020CDA0F
:100510000C3208DD02F1140CC2F10C0201FA0CF0ED
:1005200021FA02F10CE002F11402D8BFC2F1200C52
:1005300001FA02F120FA0CFCDCBF41EA0C01904008
:10054000E41AA2BF01EB0451294330BD6FEA040451
:100550001F3C1CDA0C340EDC04F11404C4F120023C
:1005600020FA04F001FA02F340EA030021FA04F34E
:1005700045EA030130BDC4F10C04C4F1200220FAA5
:1005800002F001FA04F340EA0300294630BD21FAE3
:1005900004F0294630BD94F0000F83F4801306BFA9
:1005A00081F480110134013D4EE77FEA645C18BF9D
:1005B0007FEA655C29D094EA050F08BF90EA020F34
:1005C00005D054EA000C04BF1946104630BD91EA2C
:1005D000030F1EBF0021002030BD5FEA545C05D12F
:1005E0004000494128BF41F0004130BD14F580046E
:1005F0003CBF01F5801130BD01F0004545F0FE41E2
:1006000041F470014FF0000030BD7FEA645C1ABF16
:10061000194610467FEA655C1CBF0B46024650EA4D
:10062000013406BF52EA033591EA030F41F4002179
:1006300030BD00BF90F0000F04BF0021704730B5FF
:100640004FF4806404F132044FF000054FF00001D4
:1006500050E700BF90F0000F04BF0021704730B595
:100660004FF4806404F1320410F0004548BF40426A
:100670004FF000013EE700BF42004FEAE2014FEABF
:1006800031014FEA02701FBF12F07F4393F07F4F9A
:1006900081F06051704732F07F4208BF704793F09D
:1006A0007F4F04BF41F40021704730B54FF46074B0
:1006B00001F0004521F000411CE700BF50EA0102B3
:1006C00008BF704730B54FF000050AE050EA01025C
:1006D00008BF704730B511F0004502D5404261EBCC
:1006E00041014FF4806404F132045FEA915C3FF40D
:1006F000D8AE4FF003025FEADC0C18BF03325FEAAA
:10070000DC0C18BF033202EBDC02C2F1200300FA5A
:1007100003FC20FA02F001FA03FE40EA0E0021FA7F
:1007200002F11444BDE600BF53B94AB9002908BF1D
:1007300000281CBF4FF0FF314FF0FF3000F0A2B98E
:10074000ADF1080C6DE904CE00F03EF8DDF804E0F0
:10075000DDE9022304B0704708B502460B4643ECBE
:10076000172BB5EEC07BF1EE10FA03D4BDE80840BC
:1007700000F00AB8B1EE477B51EC170B00F004F81B
:10078000404261EB410108BD9FED0B6B41EC170B43
:100790009FED0B5B27EE066BBCEEC66BB8EE464BCF
:1007A000A4EE457BFCEEC77B16EE101A17EE900AFE
:1007B000704700BFAFF30080000000000000F03D74
:1007C000000000000000F0412DE9F047089D0C46B4
:1007D000002B4ED194468C458646B2FA82F262D9FD
:1007E0004AB1C2F12003914020FA03F30CFA02FC53
:1007F000194300FA02FE4FEA1C471FFA8CF6B1FBC0
:10080000F7F44FEA1E4307FB141143EA014304FBCC
:1008100006F199420AD91CEB030304F1FF3080F082
:100820001281994240F20F81023C6344591A1FFA27
:100830008EF3B1FBF7F007FB101143EA014300FB15
:1008400006F69E420AD91CEB030300F1FF3180F04B
:10085000FC809E4240F2F980634402389B1B40EAD0
:10086000044000211DB1D3400022C5E90032BDE89B
:10087000F0878B4205D90DB1C5E90001002108467A
:10088000F5E7B3FA83F1002946D1A34202D390429F
:10089000C0F0F080861A64EB03030120002DE6D03F
:1008A000C5E90063E3E7002A40F09080A1EB0C0467
:1008B0004FEA1C481FFA8CF70121B4FBF8F64FEA07
:1008C0001E4308FB164443EA044307FB06F0984224
:1008D00008D91CEB030306F1FF3402D2984200F260
:1008E000CD8026461C1A1FFA8EF3B4FBF8F008FBE5
:1008F000104443EA044300FB07F79F4208D91CEB6E
:10090000030300F1FF3402D29F4200F2B080204680
:10091000DB1B40EA0640A5E7C1F120068B4022FA26
:1009200006F71F4320FA06FC04FA01F343EA0C031E
:10093000F44000FA01F8380C4FEA1349B4FBF0FE1A
:100940001FFA87FC00FB1E4449EA04440EFB0CF925
:10095000A14502FA01F20AD93C190EF1FF3A80F0E2
:100960008480A14540F28180AEF1020E3C44A4EBAC
:1009700009041FFA83F9B4FBF0F300FB134449EABE
:10098000044403FB0CFCA44507D93C1903F1FF30D8
:1009900067D2A44565D9023B3C4443EA0E40A0FB24
:1009A0000293A4EB0C049C42CE469C4651D34ED0FD
:1009B00055B1B8EB0E0364EB0C0404FA06F6CB4019
:1009C0001E43CC40C5E90064002150E7C2F120037A
:1009D00020FA03F10CFA02FC24FA03F394400C43CE
:1009E0004FEA1C4800FA02FE1FFA8CF7B3FBF8F03E
:1009F00008FB1031230C43EA014300FB07F1994245
:100A000008D91CEB030300F1FF362CD299422AD9F6
:100A1000023863445B1AA4B2B3FBF8F108FB11334C
:100A200044EA034401FB07F3A34208D91CEB040486
:100A300001F1FF3613D2A34211D902396444E41AFA
:100A400041EA004139E70446F0E6084606E7C845B2
:100A5000AED2B9EB020E63EB070C0138A8E73146C2
:100A6000EDE7034699E73046D4E7D6467FE763448F
:100A700002384DE70646234608460FE7023E634428
:100A800030E700BF704700BF80B586B000AF786028
:100A90000123FB7300233B617B687B611FE07B6963
:100AA0001B78202B05D17B6900221A700123FB7370
:100AB00012E0FB7B002B0FD03B69072B0AD81D49A6
:100AC0003B697A6941F823203B6901333B6100238C
:100AD000FB7301E0022328E07B6901337B617B69C2
:100AE0001B78002BDBD13B69002B1DD0124BBB6068
:100AF00016E0104B1A68BB681B6819461046FFF7D2
:100B0000EFFB0346002B08D1BB685B683A690949D3
:100B1000104698470346DBB207E0BB680C33BB6066
:100B2000BB681B68002BE4D1012318461837BD466B
:100B300080BD00BFF40400241800002480B400AF7E
:100B4000BFF34F8F00BF064BDB6803F4E06204493C
:100B5000044B1343CB60BFF34F8F00BF00BFFDE7D3
:100B600000ED00E00400FA0580B483B000AF7860C7
:100B700039607B683A689A6100BF0C37BD465DF802
:100B8000047B704780B483B000AF786039603B6805
:100B90001A047B689A6100BF0C37BD465DF8047B80
:100BA0007047000080B500AF214815F099F9214841
:100BB00015F096F9204815F093F9204815F090F9B2
:100BC0001F4815F08DF91F4815F08AF91E4815F0D9
:100BD00087F91E4815F084F91D4815F081F91D4864
:100BE00015F07EF91C4815F07BF91C4815F078F9D2
:100BF0001B4815F075F91B4815F072F91A4815F0E5
:100C00006FF91A4815F06CF9322005F0E9F8184828
:100C100015F066F9174815F063F9174815F060F9F3
:100C2000124815F05DF9154815F05AF900BF80BD5E
:100C300050C9010858C9010860C9010864C9010800
:100C40006CC901082CCA0108C8CA010868CB010890
:100C500028CC0108E8CC0108A8CD010868CE01081D
:100C600028CF0108E8CF0108A8D0010868D1010801
:100C700070D1010878D10108BCD10108C0D10108A8
:100C800080B500AF074B00221A70402200210648B1
:100C900017F016FD054B00221A70FFF783FF00BF07
:100CA00080BD00BF18050024A4060024E40600242B
:100CB00080B582B000AF15F003F90346002B29D0B0
:100CC00015F0F0F80346FB71FB791B2B08D1134B91
:100CD00000221A70FFF7D4FF114B00221A7007E0B0
:100CE0000023BB80FB793B713B1D184615F0F8F8DB
:100CF0000B4B1B78002B05D1FB790A49184600F0F5
:100D000029FF07E0064B1B78012B03D1FB7918461E
:100D100000F082F900BF0837BD4680BDCD20002419
:100D2000180500241C05002480B582B000AF78604F
:100D300039607B68012B01D002231BE00F4B01229D
:100D40001A70FFF72FFF0E4815F0CAF80D4815F07E
:100D5000C7F80D4815F0C4F80C4815F0C1F80C4858
:100D600015F0BEF80B4815F0BBF800F02FF900F0B5
:100D70009DF8062318460837BD4680BD1805002497
:100D800050C9010868D1010860C9010858C90108A3
:100D9000C8D10108E0D1010880B584B000AF786007
:100DA00039607B68012B01D002235AE0FFF7FAFE7D
:100DB0002E4815F095F82E4815F092F82D4815F0AC
:100DC0008FF82D4815F08CF82C4815F089F82C4830
:100DD00015F086F800F0D4F80721082000F0B6F8E6
:100DE000284815F07DF80821082000F0AFF82648C3
:100DF00015F076F80921082000F0A8F8234815F02E
:100E00006FF80B21082000F0A1F8214BFB60F86877
:100E100015F066F80D21082000F098F81D4815F02F
:100E20005FF80E21082000F091F81B4815F058F8E3
:100E30000F21082000F08AF8184815F051F8102109
:100E4000082000F083F8164815F04AF815212020F4
:100E500000F07CF8134815F043F8134B01221A7088
:100E6000062318461037BD4680BD00BF50C9010893
:100E700068D1010860C9010858C90108FCD10108FE
:100E8000E0D1010818D2010828D201083CD201089B
:100E900054D201082CD3010838D3010848D30108E3
:100EA00058D3010868D30108CD20002480B500AFD5
:100EB0000721082000F04AF8184815F011F81848E2
:100EC00015F00EF8174815F00BF8174815F008F84C
:100ED000164815F005F80821082000F037F81448E6
:100EE00014F0FEFF134814F0FBFF134814F0F8FF52
:100EF0000921082000F02AF8104814F0F1FF1048EA
:100F000014F0EEFF0F4814F0EBFF1521202000F045
:100F10001DF80D4814F0E4FF00BF80BD7CD301082C
:100F200084D3010888D3010898D30108CCD30108E1
:100F3000D4D30108D8D30108E8D301081CD4010890
:100F400020D401082CD4010868D3010880B58CB0E6
:100F500002AF7860396007F108007B6800933B6856
:100F6000064A1E2117F044FA07F10803184614F048
:100F7000B7FF00BF2837BD4680BD00BF64D401085D
:100F800080B584B000AF0E4BBB600E4B7B600E4B48
:100F90003B60B86814F0A4FF0023FB6005E07868AC
:100FA00014F09EFFFB680133FB60FB68102BF6DD3D
:100FB000386814F095FF00BF1037BD4680BD00BFF4
:100FC00070D4010838D5010890D5010880B584B0E7
:100FD00000AF0E4BBB600E4B7B600E4B3B60B868A6
:100FE00014F07EFF0023FB6005E0786814F078FFC2
:100FF000FB680133FB60FB68102BF6DD386814F0EA
:101000006FFF00BF1037BD4680BD00BF84D601080A
:1010100038D5010890D5010880B483B000AF0346ED
:10102000FB7100BF0C37BD465DF8047B70470000C4
:1010300090B587B000AFF860B9607A6000237B613B
:1010400000233B6134E023493A6913465B001344B3
:101050009B000B441C68F868FFF7A2F903461A4688
:10106000F968204617F041FB0346002B1DD17B6930
:101070009B01BA68D01817493A6913465B001344BC
:101080009B000B441B684022194617F040FB7B690C
:101090009B01BA681344002283F83F207B69013327
:1010A0007B617A697B689A420DDA3B6901333B6167
:1010B00008493A6913465B0013449B000B441B68C4
:1010C000002BC0D100E000BF7B6918461C37BD462D
:1010D00090BD00BF1800002480B5CCB004AF07F568
:1010E0009073A3F58E73186007F59073A3F5907352
:1010F000196007F59073A3F58E731B68002B01DC54
:10110000032366E007F59073A3F58E731B68012B2C
:1011100001DD02235DE0314814F0E2FE304BC7F8F8
:101120001C310023C7F8183116E0D7F81C311B68B2
:101130001846FFF735F9C7F80C01D7F80C21D7F896
:1011400018319A4203D9D7F80C31C7F81831D7F8BB
:101150001C310C33C7F81C31D7F81C311B68002B2D
:10116000E3D11F4BC7F81C312DE0D7F81C311B68A9
:101170001846FFF715F9C7F81401D7F81821D7F862
:101180001431D31A0433C7F81031D7F81C311A6858
:10119000D7F81C319B6807F10C000293114B0193A7
:1011A000D7F81031009313460F4A4FF4807117F0AF
:1011B0001FF907F10C03184614F092FED7F81C3102
:1011C0000C33C7F81C31D7F81C311B68002BCCD16D
:1011D0000023184607F59077BD4680BD4CD701081F
:1011E0001800002474D7010864D7010880B582B0C4
:1011F00000AF786039607B68002B01DC032307E0D7
:101200007B68012B01DD022302E0FFF7CBFC00230A
:1012100018460837BD4680BD80B582B000AF786003
:1012200039607B68002B01DC032313E07B68012B12
:1012300001DD02230EE0FFF7B5FC084814F050FE74
:10124000074814F04DFE074814F04AFE064814F013
:1012500047FE002318460837BD4680BD50C9010827
:1012600068D1010860C9010858C9010880B582B079
:1012700000AF786039607B68002B01DC032307E056
:101280007B68012B01DD022302E001F04FF800230F
:1012900018460837BD4680BD80B582B000AF786083
:1012A00039607B68002B01DC032309E07B68012B9C
:1012B00001DD022304E001F013F801F0E5F800235A
:1012C00018460837BD4680BD80B582B000AF786053
:1012D00039607B68002B01DC032312E07B68012B63
:1012E00001DD02230DE04FF400710848FFF74AFCCE
:1012F000C82004F075FD4FF400710448FFF734FC7A
:10130000002318460837BD4680BD00BF00040258C0
:10131000F0B5BDB00CAFF861B961FB69032B01DD1D
:101320000223B1E0FB69012B01DC0323ACE0BB69C4
:101330005B68C7F8BC305649D7F8BC00FEF7D0FF51
:101340000346002B0CD102F04BFB0346002B03D0CD
:10135000504814F0C5FD96E04F4814F0C1FD92E0EE
:101360004E49D7F8BC00FEF7BBFF0346002B54D113
:1013700007F1B403184602F03BFB0346002B48D0AC
:1013800007F1AC0300221A605A6007F1AC0318465B
:1013900002F0D8FBB7F8B6309C4697F8B5307B61C1
:1013A00097F8B42097F8B81097F8B900044697F862
:1013B000BA000546B7F8AE00064697F8AD003861AA
:1013C00097F8AC00F86097F8B000B86097F8B100F3
:1013D000786097F8B200034607F124000A937B680F
:1013E0000993BB680893FB6807933B6906930596CE
:1013F00004950394029101927B6900936346284A05
:10140000802116F0F5FF07F12403184614F068FD5B
:1014100039E0244814F064FD35E02349D7F8BC00D6
:10142000FEF75EFF0346002B2AD107F1A40300223A
:101430001A605A6007F1A403184602F083FBB7F85C
:10144000A6301E4697F8A53097F8A42097F8A81064
:1014500097F8A900044697F8AA00054607F124006A
:101460000495039402910192009333460F4A802120
:1014700016F0BEFF07F12403184614F031FD02E018
:101480000B4814F02DFD00231846C437BD46F0BDAF
:1014900078D7010880D70108A4D70108C4D701086C
:1014A000CCD7010824D801084CD8010854D8010829
:1014B00084D8010880B582B000AF786039607B685D
:1014C000002B01DC032307E07B68012B01DD0223F5
:1014D00002E000F051FF002318460837BD4680BDEA
:1014E00080B584B000AF786039607B68012B01DC87
:1014F00003230BE07B68022B01DD022306E03B683F
:101500005B68FB60F86800F0E5FF002318461037C1
:10151000BD4680BD80B584B000AF786039607B681F
:10152000022B01DC03230FE07B68032B01DD022388
:101530000AE03B685B68FB603B689B68BB60B9681E
:10154000F86801F06DF8002318461037BD4680BDDD
:1015500080B584B000AF786039607B68022B01DC15
:10156000032319E07B68032B01DD022314E03B68B1
:101570005B68FB603B689B68BB60B968F86801F01A
:1015800037F90346002B03D1054814F0A9FC02E00B
:10159000044814F0A5FC002318461037BD4680BD52
:1015A000B8D80108DCD8010880B582B000AF7860F7
:1015B0003960FFF7C3FA000090B5A7B002AF7860BA
:1015C00039607B68012B01DC032329E07B68022B57
:1015D00001DD022324E03B685B68C7F88C30124BC6
:1015E0001C68D7F88C00FEF7DBFE03461A46D7F8D6
:1015F0008C10204601F02DFCD7F88C00FEF7D0FEB1
:10160000034607F10C000093D7F88C30074A80217D
:1016100016F0EEFE07F10C03184614F061FC0023EF
:1016200018469437BD4690BD4C010024FCD80108F3
:1016300090B5B7B002AF786039607B68022B01D0FB
:10164000032344E03B6804331B68184615F0B3F8E5
:10165000C7F8CC00D7F8CC30002B03DBD7F8CC3060
:10166000302B04DD1C4814F03BFC04232FE007F171
:101670008C00D7F8CC30194A402116F0B9FED7F8C3
:10168000CC30DAB2164B1A70164B1C6807F18C037B
:101690001846FEF785FE024607F18C0319462046E0
:1016A00001F0D7FB07F18C031846FEF779FE0246DE
:1016B00007F18C0307F10C0000920B4A802116F011
:1016C00097FE07F10C03184614F00AFC0023184695
:1016D000D437BD4690BD00BF18D9010848D90108CC
:1016E000C02000244C01002460D9010890B5B7B097
:1016F00002AF786039607B68022B01D003233FE0A2
:101700003B6804331B68184615F055F8C7F8CC0041
:10171000D7F8CC30002B03DDD7F8CC30302B04DDEC
:10172000194814F0DDFB04232AE007F18C00D7F8F8
:10173000CC30164A402116F05BFE154B1C6807F1B1
:101740008C031846FEF72CFE024607F18C0319465F
:10175000204601F07EFB07F18C031846FEF720FEC1
:10176000024607F18C0307F10C000092094A802120
:1017700016F03EFE07F10C03184614F0B1FB0023EF
:101780001846D437BD4690BD88D90108C0D9010894
:101790004C010024D8D9010890B5A7B002AF7860F9
:1017A00039607B68012B01D0022323E0134BC7F87B
:1017B0008C30134B1C68D7F88C00FEF7F1FD034604
:1017C0001A46D7F88C10204601F043FBD7F88C005E
:1017D000FEF7E6FD034607F10C000093D7F88C30C6
:1017E000084A802116F004FE07F10C03184614F095
:1017F00077FB002318469437BD4690BD08DA0108F0
:101800004C01002420DA010890B5B7B002AF78602F
:1018100039607B68022B01D003234CE03B68043322
:101820001B68184614F0C7FFC7F8CC00D7F8CC30B7
:10183000002B03DBD7F8CC30FF2B04DD204814F05D
:101840004FFB042337E007F18C00D7F8CC301D4A5A
:10185000402116F0CDFD1C4B1C6807F18C03184687
:10186000FEF79EFD024607F18C031946204601F063
:10187000F0FA07F18C031846FEF792FD024607F1D5
:101880008C0307F10C000092104A802116F0B0FD85
:1018900007F10C03184614F023FBD7F8CC3007EE01
:1018A000903AB8EEE77ADFED0A6AC7EE267A094B7E
:1018B000C3ED017A00231846D437BD4690BD00BF62
:1018C00050DA010880DA01084C01002498DA010896
:1018D0000000AA42C020002480B584B000AF786028
:1018E00039607B68072B01D0032365E03B68043334
:1018F0001B68184614F05FFF03469BB27B813B6870
:1019000008331B68184614F056FF0346DBB27B729F
:101910003B680C331B68184614F04DFF0346DBB2DE
:101920003B723B6810331B68184614F044FF0346B3
:10193000DBB23B733B6814331B68184614F03BFF63
:101940000346DBB27B733B6818331B68184614F000
:1019500032FF0346DBB2BB737B89B3F5FA6F19D351
:101960007B8940F63302934214D87B7A002B11D046
:101970007B7A0C2B0ED83B7A002B0BD03B7A1F2B9B
:1019800008D83B7B172B05D87B7B3B2B02D8BB7B36
:101990003B2B01D904230FE007F10803184601F09F
:1019A000CBFE0346002B03D0054814F099FA02E061
:1019B000044814F095FA002318461037BD4680BD40
:1019C000C0DA0108DCDA010880B5A8B004AF78609D
:1019D00039607B68012B01DC032398E03B685B687E
:1019E000C7F88C304C49D7F88C00FEF779FC0346D9
:1019F000002B09D1494B01221A70494814F070FAA2
:101A0000484B00221A7081E04749D7F88C00FEF756
:101A100067FC0346002B06D1404B00221A70434856
:101A200014F05EFA72E04249D7F88C00FEF758FCD9
:101A30000346002B3CD17B68032B01D0032366E0D7
:101A40003B6808331B68184614F0B2FEB0EE407BCA
:101A5000F7EEC77BC7ED227AD7ED227AF5EEC07A92
:101A6000F1EE10FA08D4D7ED227A9FED327AF4EE37
:101A7000C77AF1EE10FA04DD2F4814F031FA04238E
:101A800045E0264AD7F888305360D7ED227AB7EE82
:101A9000E77A07F108038DED007B284A40211846BC
:101AA00016F0A6FC07F10803184614F019FA2DE009
:101AB0002349D7F88C00FEF713FC0346002B20D1F6
:101AC000164B1B78002B01D01E4B00E01E4B134A17
:101AD000D2ED017AB7EEE77A104AD2ED026AB7EE9C
:101AE000E66A07F108008DED026B8DED007B174A69
:101AF000802116F07DFC07F10803184614F0F0F978
:101B000004E0134814F0ECF9042300E00023184625
:101B10009037BD4680BD00BF1CDB01085401002486
:101B200020DB0108CC20002434DB010838DB01086D
:101B30004CDB01080000C84250DB01088CDB0108C7
:101B4000B0DB0108B4DB0108B8DB0108BCDB01082D
:101B50000CDC010880B5ADF55A7D02AF024607F5F1
:101B60005873A3F55873196007F55873A3F25933E6
:101B70001A7007F55873A3F259331B781B2B1AD12F
:101B800007F54C70BC4BBD4A1E2116F031FC07F521
:101B90004C73184614F0A4F907F55873A3F558735D
:101BA0001B680022A3F8402007F55873A3F558736B
:101BB0001B6800221A7007F55873A3F259331B787B
:101BC0005C2B4DD1AE4814F08BF907F55873A3F593
:101BD00058731B6807F108010A221846FFF728FA14
:101BE000C7F85003A74814F07BF9D7F85033002BFF
:101BF0001EDD0023C7F85C3313E0A34814F070F92E
:101C000007F10802D7F85C339B011344184614F01F
:101C100067F99E4814F064F9D7F85C330133C7F8CC
:101C20005C33D7F85C23D7F850339A42E5DB02E007
:101C3000974814F055F907F544708F4B954A1E21CB
:101C400016F0D6FB07F54473184614F049F907F56A
:101C50005873A3F558731B68184614F041F9FFE256
:101C600007F55873A3F259331B782D2B7AD107F55A
:101C70005873A3F558731B68B3F88431002B0FD049
:101C800007F55873A3F558731B68B3F88431013B0B
:101C90009AB207F55873A3F558731B68A3F884210B
:101CA00007F55873A3F558731B68B3F8842107F53B
:101CB0005873A3F558731B68B3F882319A422AD23D
:101CC00007F55873A3F55873186807F55873A3F50B
:101CD00058731B68B3F88431194607F55873A3F598
:101CE00058724B1C9B01126813440233194617F0BB
:101CF00012FB07F55873A3F558731B681846FEF7D7
:101D00004FFB03469AB207F55873A3F558731B6847
:101D1000A3F840200EE007F55873A3F558731B682D
:101D200000221A7007F55873A3F558731B68002238
:101D3000A3F84020584814F0D3F807F53C704E4BF8
:101D4000544A1E2116F054FB07F53C73184614F054
:101D5000C7F807F55873A3F558731B68184614F0B5
:101D6000BFF87DE207F55873A3F259331B783D2B7A
:101D700040F0948007F55873A3F558731B68B3F8C7
:101D8000842107F55873A3F558731B68B3F88231A3
:101D90009A420FD207F55873A3F558731B68B3F82E
:101DA000843101339AB207F55873A3F558731B6851
:101DB000A3F8842107F55873A3F558731B68B3F88B
:101DC000842107F55873A3F558731B68B3F8823163
:101DD0009A422AD207F55873A3F55873186807F585
:101DE0005873A3F558731B68B3F88431194607F587
:101DF0005873A3F558724B1C9B01126813440233AD
:101E0000194617F088FA07F55873A3F558731B683D
:101E10001846FEF7C5FA03469AB207F55873A3F5BC
:101E200058731B68A3F840200EE007F55873A3F51C
:101E300058731B6800221A7007F55873A3F558737E
:101E40001B680022A3F84020134814F049F807F556
:101E50003470094B0F4A1E2116F0CAFA07F5347385
:101E6000184614F03DF807F55873A3F558731B682E
:101E7000184614F035F8F3E14CDC010864DC010885
:101E80006CDC010870DC010890DC010894DC0108BE
:101E900098DC0108ACDC0108B4DC010807F55873D4
:101EA000A3F259331B781F2B06D907F55873A3F2F9
:101EB00059331B787E2B0ED907F55873A3F259338B
:101EC0001B780D2B07D007F55873A3F259331B78F5
:101ED0007F2B40F0C58107F55873A3F259331B7867
:101EE0002D2B00F0BD8107F55873A3F259331B78F1
:101EF0003D2B00F0B58107F55873A3F259331B78D9
:101F00005C2B00F0AD8107F55873A3F259331B78B1
:101F10000D2B40F01E8107F5327300221A605A60C3
:101F200007F53273184601F00DFE97F8CC321946CA
:101F300097F8CD3297F8CE2207F52A7001920093D8
:101F40000B46C94A1E2116F053FA07F55873A3F53C
:101F500058731B68B3F84030002B00F0EA8007F597
:101F60005873A3F558731B68B3F840301A4607F549
:101F70005873A3F558731B680021995407F55873DB
:101F8000A3F558731B68B3F88231002B1CD007F5FA
:101F90005873A3F558731B68B3F88231013B07F5FA
:101FA0005872A2F5587201339B01126813449A1CAF
:101FB00007F55873A3F558731B6819461046FEF7CA
:101FC0008FF90346002B6AD007F55873A3F55873B1
:101FD0001B68B3F88231042B2AD807F55873A3F590
:101FE00058731B68B3F88231194607F55873A3F587
:101FF00058724B1C9B01126813449A1C07F55873C6
:10200000A3F558731B681946104617F084F907F5B5
:102010005873A3F558731B68B3F8823101339AB231
:1020200007F55873A3F558731B68A3F8822136E0AF
:102030000023C7F858331EE007F55873A3F558720C
:10204000D7F8583301339B0112681344981CD7F812
:102050005833013307F55872A2F5587201339B01CA
:10206000126813440233194617F055F9D7F858335C
:102070000133C7F85833D7F85833032BDCDD07F5A5
:102080005873A3F558731B6803F5A17207F55873CD
:10209000A3F558731B681946104617F03CF907F56D
:1020A0005873A3F558731B68B3F8822107F558736A
:1020B000A3F558731B68A3F8842107F55873A3F59B
:1020C00058731B681846FEF7DFFC034687F8573342
:1020D00097F95733062B00F0C38007F10803634AD2
:1020E0003C21184616F084F907F10803184613F04E
:1020F000F7FE97F957335E4A52F82330184613F02B
:10210000EFFE07F52A7307F108005A4A00925A4A6F
:102110003C2116F06DF907F10803184613F0E0FEB4
:1021200007F55873A3F558731B680022A3F84020E5
:1021300096E007F52A7307F108004E4A00924F4ACD
:102140003C2116F055F907F10803184613F0C8FEB4
:1021500086E007F55873A3F259331B787F2B2CD1F7
:1021600007F55873A3F558731B68B3F84030002B7C
:102170001FD007F55873A3F558731B68B3F84030A8
:10218000013B9AB207F55873A3F558731B68A3F87F
:10219000402007F55873A3F558731B68B3F8403017
:1021A0001A4607F55873A3F558731B680021995414
:1021B00056E0334813F094FE52E007F55873A3F548
:1021C00058731B68B3F840303E2B2BD807F5587373
:1021D000A3F558731B68B3F840305A1C91B207F549
:1021E0005872A2F558721268A2F84010194607F505
:1021F0005873A3F558731B6807F55872A2F2593249
:1022000012785A5407F55873A3F558731B68B3F83E
:1022100040301A4607F55873A3F558731B68002120
:1022200099541DE0174813F05BFE07F52270114B1F
:10223000154A1E2116F0DCF807F52273184613F034
:102240004FFE07F55873A3F558731B680022A3F8D7
:10225000402007F55873A3F558731B6800221A70C5
:1022600007F55877BD4680BDBCDC0108DCDC010801
:10227000000000244CDC0108ECDC0108F4DC01085F
:1022800000DD010804DD010864DC010880B500AF51
:102290000249034800F07AFC00BF80BD24010024FD
:1022A0002001002480B483B000AF786039607B687F
:1022B0003A689A6100BF0C37BD465DF8047B7047F1
:1022C00080B483B000AF786039603B681A047B68E3
:1022D0009A6100BF0C37BD465DF8047B7047000073
:1022E00080B500AF4FF400510D48FFF7DBFF4FF40E
:1022F00080610C48FFF7D6FF4FF400410848FFF714
:10230000DFFF10210748FFF7DBFF4FF4804104484F
:10231000FFF7C8FF044B00221A7000BF80BD00BF4A
:1023200000100258000C0258E506002480B500AFEA
:102330004FF480610D48FFF7C3FF4FF480610B48F5
:10234000FFF7BEFF4FF400410948FFF7ABFF102134
:102350000648FFF7B5FF4FF480410548FFF7A2FF9D
:10236000044B01221A7000BF80BD00BF000C025850
:1023700000100258E506002480B5ADF5407D02AF9F
:102380003C4BC7F8F4323846D7F8F4323A4A4FF4A7
:10239000C07116F02DF83B46184613F0A1FD07F565
:1023A0002873D7F8F412184613F05EF8034687F83E
:1023B000F33297F8F332002B47D107F5C07207F5D7
:1023C00028731146184613F08CF9034687F8F33248
:1023D00097F8F332002B32D107F53E73A3F5BC73A7
:1023E0009B7E002B2BD007F53E73A3F5BC731B7BA4
:1023F00003F01003002B0DD007F5C0731A333846D5
:102400001E4A4FF4C07115F0F3FF3B46184613F017
:1024100067FDD2E707F53E73A3F5BC73D3E900234C
:1024200007F5C0731A3338460092154A4FF4C0714D
:1024300015F0DEFF3B46184613F052FDBDE707F5E9
:102440002873184613F027F90EE097F8F332384650
:102450000093D7F8F4320B4A4FF4C07115F0C8FF5F
:102460003B46184613F03CFD00BF07F53E77BD46DE
:1024700080BD00BF3817002420DD010844DD0108BD
:1024800054DD01086CDD010880B582B000AF0D4954
:102490000D4813F0EBF90346002B0ED100237B60AF
:1024A00001220849094811F09FFE03467B607B68C2
:1024B000002B02D0064813F013FD00BF0837BD46BD
:1024C00080BD00BF381700247CE40108E806002422
:1024D00090DD010890B5ADF5935D85B002AF07F5CD
:1024E0001A73A3F51973186041F268233B44A3F5EE
:1024F00093531F335B095C0107F51A73A3F5197336
:1025000007F502700122196811F0BAFE034641F284
:1025100067223A44137041F267233B441B78002B37
:1025200018D041F267233B441A7807F51A73A3F5D4
:10253000197307F1880000921B68354A4FF4C07187
:1025400015F056FF07F18803184613F0C9FC4FF049
:10255000FF3356E02F4813F0C3FC602200212046D1
:1025600016F0AEF82C4B03F5935303F108033B44EC
:1025700007F502705F22214612F035FA034641F258
:1025800067223A44137041F267233B441B78002BC7
:102590001DD041F267233B441A7807F51A73A3F55F
:1025A000197307F1880000921B681C4A4FF4C07130
:1025B00015F01EFF07F18803184613F091FC07F58C
:1025C0000273184612F026FF4FF0FF3319E007F5AB
:1025D0001A73A3F5F2731B680022E254204613F02D
:1025E0007FFC07F51A73A3F5F2731B68002BB4D1B7
:1025F000084813F075FC07F50273184612F00AFF3D
:102600000023184607F593570C37BD4690BD00BF11
:10261000A4DD0108C4DD01081CEEFFFFC8DD0108D0
:1026200080B5ADF58F5D86B002AF07F5F873A3F501
:10263000F673186007F5F873A3F5F873196007F5DA
:10264000F873A3F5F67307F5C8703A22196811F00C
:1026500017FE034641F2EF123A44137041F2EF13B2
:102660003B441B78002B18D041F2EF133B441A78FF
:1026700007F5F873A3F5F67307F1100000921B68D5
:10268000564A4FF4C07115F0B3FE07F11003184617
:1026900013F026FC4FF0FF339AE007F5F873A3F52B
:1026A000F8731B68002B00F08D8007F5F873A3F515
:1026B000F8731B681B78002B00F0848007F5F87313
:1026C000A3F5F8731868FDF76BFE0246444B03F55B
:1026D0008F5303F110033B4407F5F871A1F5F8712E
:1026E00007F5C870096812F016FB034641F2EF12B5
:1026F0003A44137041F2EF133B441B78002B0ED188
:1027000007F5F873A3F5F8731868FDF749FE02465C
:1027100007F5F873A3F5F2731B689A421DD041F2D6
:10272000EF133B441A7807F5F873A3F5F67307F136
:10273000100000921B682B4A4FF4C07115F058FE30
:1027400007F11003184613F0CBFB07F5C8731846C2
:1027500012F060FE4FF0FF333AE0214B03F58F5348
:1027600003F110033B4407F5C87002221E4912F022
:10277000D2FA034641F2EF123A44137041F2EF13DA
:102780003B441B78002B1DD041F2EF133B441A78D9
:1027900007F5F873A3F5F67307F1100000921B68B4
:1027A000124A4FF4C07115F023FE07F110031846CA
:1027B00013F096FB07F5C873184612F02BFE4FF086
:1027C000FF3305E007F5C873184612F023FE002317
:1027D000184607F58F571037BD4680BDE8DD010864
:1027E0001CEEFFFF10DE0108C4DD010834DE010825
:1027F00080B5ADF58F5D86B002AF07F5F873A3F530
:10280000F673186007F5F873A3F5F873196007F508
:10281000F873A3F5F67307F5C8703222196811F042
:102820002FFD034641F2EF123A44137041F2EF13C9
:102830003B441B78002B18D041F2EF133B441A782D
:1028400007F5F873A3F5F67307F1100000921B6803
:10285000594A4FF4C07115F0CBFD07F1100318462B
:1028600013F03EFB4FF0FF33A0E007F5F873A3F53C
:10287000F8731B68002B00F0938007F5F873A3F53D
:10288000F8731B681B78002B00F08A8007F5F8733B
:10289000A3F5F8731868FDF783FD0246474B03F56F
:1028A0008F5303F110033B4407F5F871A1F5F8715C
:1028B00007F5C870096812F02EFA034641F2EF12CC
:1028C0003A44137041F2EF133B441B78002B0ED1B6
:1028D00007F5F873A3F5F8731868FDF761FD024674
:1028E00007F5F873A3F5F2731B689A421DD041F205
:1028F000EF133B441A7807F5F873A3F5F67307F165
:10290000100000921B682E4A4FF4C07115F070FD44
:1029100007F11003184613F0E3FA07F5C8731846D9
:1029200012F078FD4FF0FF3340E007F5F87353E9FC
:102930001423134334D0214B03F58F5303F11003B9
:102940003B4407F5C87002221E4912F0E4F9034621
:1029500041F2EF123A44137041F2EF133B441B78FB
:10296000002B1DD041F2EF133B441A7807F5F873A2
:10297000A3F5F67307F1100000921B68124A4FF49A
:10298000C07115F035FD07F11003184613F0A8FAD1
:1029900007F5C873184612F03DFD4FF0FF3305E010
:1029A00007F5C873184612F035FD0023184607F5E1
:1029B0008F571037BD4680BDE8DD01081CEEFFFFD4
:1029C00060DE0108C4DD010834DE010880B483B094
:1029D00000AF0346FB71FB79052B1BD801A252F80F
:1029E00023F000BFFD290008012A0008052A00087D
:1029F000092A00080D2A0008112A0008094B0AE0DC
:102A0000094B08E0094B06E0094B04E0094B02E0E2
:102A1000094B00E0094B18460C37BD465DF8047BB6
:102A2000704700BF8CDE010894DE01089CDE0108BF
:102A3000A4DE0108ACDE0108B4DE0108BCDE01083A
:102A400084B080B58AB008AF07F1100C8CE80F0095
:102A500007F13A031E491846FDF742FC0346002BD6
:102A600008D007F13A031B491846FDF739FC034625
:102A7000002B02D107F13A0300E0174B7B6097F877
:102A800039301846FFF7A2FF0246B7F864301946FE
:102A900007F166030693059107F1440304937B68ED
:102AA0000393029207F12503019307F11C0300939E
:102AB00007F11003094A4FF48271D7F8E80015F0C6
:102AC00097FC00BF0837BD46BDE8804004B07047A2
:102AD000C4DE0108C8DE0108CCDE0108D0DE010832
:102AE00080B500AF0D4B00221A600D4B00221A700A
:102AF0000C4B00221A70F02200210B4815F0E0FD6B
:102B0000F0220021094815F0DBFD082200210848C9
:102B100015F0D6FD00F075F900BF80BD2419002422
:102B20002C180024201900243C17002430180024FD
:102B30002819002480B483B000AF03463960FB71CC
:102B4000FB79012B04D8FB7904493A6841F823202A
:102B500000BF0C37BD465DF8047B70472819002480
:102B600080B483B000AF0346FB71FB79064A52F88C
:102B70002330002B0CBF01230023DBB218460C3797
:102B8000BD465DF8047B70472819002480B485B0E9
:102B900000AF786039600123FB737B68002B29D07C
:102BA0003B68002B26D0174B1B78122B22D8154BD5
:102BB0001B781A4613465B0013449B00124A1344C9
:102BC000BB60BB683A689A60BB6800225A803B6869
:102BD000DA68BB685A60BB6801221A70094B1A7820
:102BE0007B681A70074B1B780133DAB2054B1A70F9
:102BF0000023FB73FB7B18461437BD465DF8047B4E
:102C0000704700BF2C1800243C17002480B485B006
:102C100000AF424B1B680133404A13600023FB7333
:102C200025E0FA7B13465B0013449B003C4A1344A7
:102C30007B607B689B681B78012B15D17B681B78B8
:102C4000012B11D17B685B685A1C7B685A607B68DA
:102C50005A687B689B685B689A4205D37B68002250
:102C60005A607B6801225A80FB7B0133FB732D4B3A
:102C70001B78FA7B9A42D4D30023BB732BE0BA7B38
:102C800013465B0013449B00274A1344BB60BB6898
:102C90001B78012B1CD1BB685B685A1CBB685A604F
:102CA000BB685A68BB689B685B689A4210D3BB6874
:102CB00001225A80BB6800225A60BB689B681B785F
:102CC000022B0CBF01230023DBB21A46BB681A702B
:102CD000BB7B0133BB73154B1B78BA7B9A42CED3B7
:102CE0000023BB7310E0BB7B114A52F82330002B4A
:102CF00007D0BB7B0E4A52F82320013A0C4941F819
:102D00002320BB7B0133BB73BB7B012BEBD900BF03
:102D100000BF1437BD465DF8047B704724190024BA
:102D20003C1700242C1800243018002420190024FB
:102D30002819002480B500AF00F05CF800BF80BD0A
:102D400080B584B000AF0023FB731EE0FA7B13460E
:102D50005B0013449B00234A13447B607B685B88C1
:102D6000012B0FD17B681B78012B0BD17B680022D4
:102D70005A807B689B689B68002B03D07B689B68AC
:102D80009B689847FB7B0133FB73174B1B78FA7BDF
:102D90009A42DBD30023BB731AE0BA7B13465B0075
:102DA00013449B00114A1344BB60BB685B88012B32
:102DB0000BD1BB6800225A80BB689B689B68002BC4
:102DC00003D0BB689B689B689847BB7B0133BB7390
:102DD000074B1B78BA7B9A42DFD300BF00BF103786
:102DE000BD4680BD3C1700242C1800243018002458
:102DF0002019002480B400AF00BFBD465DF8047BFD
:102E0000704780B400AF00BFBD465DF8047B7047DB
:102E100080B584B000AFF860B9607A60FB68002BC1
:102E200005D0BB68002B02D07B68002B01D10023AA
:102E30000BE014220021F86815F042FCFB687A6868
:102E40005A60FB68BA681A60012318461037BD46FD
:102E500080BD80B588B000AFF860B9607A60BB68AB
:102E6000FB61FB68002B0DD0FB681B68002B09D0B1
:102E7000FB685B68002B05D0BB68002B02D07B6829
:102E8000002B01D1002359E0F86800F05BF8B8612D
:102E90007A68BB69934228BF13467B607B68002B2E
:102EA00001D100234AE0FB685A68FB68DB68D31A4B
:102EB0007A689A4205D9FB685A68FB68DB68D31ABE
:102EC00000E07B687B61FB681A68FB68DB68134481
:102ED0007A69F969184616F026FAFB68DA687B69A0
:102EE0001A44FB68DA607A687B69D31A7B607B6876
:102EF000002B0BD0FB681868FA697B6913447A6869
:102F0000194616F010FAFB687A68DA60FB68DA682E
:102F1000FB685B689A4202D3FB680022DA60FB68B8
:102F20001B69002B07D0FB681B6979697A680A4422
:102F30000121F86898477A697B681344184620375E
:102F4000BD4680BD80B487B000AF78607B68002B41
:102F500007D07B681B68002B03D07B685B68002B65
:102F600001D100231FE07B68DB683B617B689B68C5
:102F7000FB603A69FB689A4203D17B685B687B61BE
:102F80000FE0FA683B699A4204D9FA683B69D31AA0
:102F90007B6106E07B685A68F9683B69CB1A134489
:102FA0007B617B69013B18461C37BD465DF8047B9D
:102FB000704780B487B000AF78607B68002B07D083
:102FC0007B681B68002B03D07B685B68002B01D1FA
:102FD00000231DE07B68DB683B617B689B68FB60CE
:102FE0003A69FB689A4202D100237B610FE03A699B
:102FF000FB689A4204D93A69FB68D31A7B6106E000
:103000007B685A683969FB68CB1A13447B617B691A
:1030100018461C37BD465DF8047B704780B483B00A
:1030200000AF78607B68002B07D07B681B68002BA3
:1030300003D07B685B68002B01D1002304E07B6830
:103040001A687B689B68134418460C37BD465DF8C8
:10305000047B704780B487B000AF78607B68002B3A
:1030600007D07B681B68002B03D07B685B68002B54
:1030700001D100231BE07B68DB683B617B689B68B8
:10308000FB603A69FB689A4204D93A69FB68D31A33
:103090007B610BE0FA683B699A4205D97B685A6804
:1030A000FB68D31A7B6101E000237B617B691846D2
:1030B0001C37BD465DF8047B704780B584B000AF17
:1030C000786039607B68002B0AD07B681B68002B16
:1030D00006D07B685B68002B02D03B68002B01D1D7
:1030E000002327E07868FFF764FFF8603A68FB6820
:1030F000934228BF13463B607B689A683B681A443A
:103100007B689A607B689A687B685B689A4206D3A2
:103110007B685B687A689268D21A7B689A607B6881
:103120001B69002B05D07B681B693A680021786811
:1031300098473B6818461037BD4680BD80B483B0C1
:1031400000AF78607B689B8801337A68128993FBB3
:10315000F2F101FB02F29B1A7A68D28893420CBF0B
:1031600001230023DBB218460C37BD465DF8047B13
:10317000704780B483B000AF78607B689A887B68C2
:10318000DB889A420CBF01230023DBB218460C37C0
:10319000BD465DF8047B704780B582B000AF7860B3
:1031A0000B46FB707868FFF7C9FF0346002B14D16C
:1031B0007B681B687A6892881344FA781A707B6877
:1031C0009B8801337A68128993FBF2F101FB02F2CA
:1031D0009B1A9AB27B689A8002E0034815F000F9C6
:1031E00000BF0837BD4680BDF8DE010880B584B059
:1031F00000AF78607868FFF7BCFF0346002B15D15D
:103200007B681B687A68D28813441B78FB737B68E1
:10321000DB8801337A68128993FBF2F101FB02F239
:103220009B1A9AB27B68DA80FB7B04E0044815F0B5
:10323000D7F84FF0FF3318461037BD4680BD00BFAA
:1032400010DF010880B584B000AF78600023FB6018
:10325000786800F0B7F8786800F00BF80346002BA8
:1032600002D06FF00303FB60FB6818461037BD46C1
:1032700080BD80B584B000AF78600023FB737868B0
:1032800003F0DAF80346002B01D00123FB73FB7B2C
:1032900018461037BD4680BD80B588B002AFF860D3
:1032A000B9607A603B603B68642202FB03F33B61D8
:1032B0003B6900933B687A68B968F86803F098F94D
:1032C0000346002B03D06FF003037B6101E0002372
:1032D0007B617B6918461837BD4680BD80B588B0D4
:1032E00002AFF860B9607A603B603B68642202FB21
:1032F00003F33B613B6900933B687A68B968F868FF
:1033000003F00AFB0346002B03D06FF003037B613D
:1033100001E000237B617B6918461837BD4680BDFC
:1033200080B582B000AF7860786804F0DBF90346BE
:10333000042B14BF01230023DBB218460837BD4617
:1033400080BD80B584B000AF786039603968786836
:1033500003F0D8FF0346002B03D06FF00303FB609C
:1033600001E00023FB60FB6818461037BD4680BDB6
:1033700080B483B000AF786000BF0C37BD465DF805
:10338000047B704780B483B000AF786000BF0C3717
:10339000BD465DF8047B704780B582B000AF7860B1
:1033A0007868FFF7E5FF00BF0837BD4680BD80B5F0
:1033B00082B000AF78607868FFF7E4FF00BF08379D
:1033C000BD4680BD80B582B000AF7860786801F0FE
:1033D0008BFC00BF0837BD4680BD000080B400AF45
:1033E0003D4BD3F888303C4A43F47003C2F8883030
:1033F000394B1B69384A43F010031361374B1B6884
:1034000003F00F03062B07D8344B1B6823F00F0380
:10341000324A43F007031360314B1B68304A43F0D4
:10342000010313602E4B00221A612D4B1A682C49A0
:103430002C4B13400B60294B1B6803F00803002B37
:1034400007D0264B1B6823F00F03244A43F00703E1
:103450001360234B00229A61214B0022DA61204B3A
:1034600000221A621E4B204A9A621D4B1F4ADA62E2
:103470001B4B1F4A1A631A4B00225A63184B1C4AF3
:103480009A63174B0022DA63154B194A1A64144BDE
:1034900000225A64124B1B68114A23F480231360E4
:1034A0000F4B00221A66134B5B6A124A43F48043A7
:1034B0005362114B1A68114B1340B3F1005F02D2F3
:1034C0000F4B01221A600F4B43F2D2021A6000BF69
:1034D000BD465DF8047B704700ED00E0002000521F
:1034E000004402587FEDF6EA000202020000FF01EC
:1034F00080020101C00000580010005C0000FFFFC6
:10350000088100510040005280B483B000AF786061
:1035100039607B683A689A6100BF0C37BD465DF838
:10352000047B704780B483B000AF786039603B683B
:103530001A047B689A6100BF0C37BD465DF8047BB6
:103540007047000080B500AF10210248FFF7DCFF94
:1035500000BF80BD0010025880B500AF10210248A6
:10356000FFF7E0FF00BF80BD0010025880B500AF3C
:103570000D4B07229A710C4B07225A710A4B0722F6
:103580001A71094B07221A70074B07225A70064B13
:1035900040F61D025A8000F00BF800F0E9F90346EE
:1035A000024A136000BF80BD301B0024381B00247A
:1035B00090B585B000AF3B1D0A22FF21184615F0DB
:1035C0007FF888233B71FFF7BDFF0023FB7313E0F7
:1035D000FB7B10333B4413F80C3CFC7B19464948F9
:1035E00000F00AFB03461A4604F110033B4403F8BB
:1035F0000C2CFB7B0133FB73FB7B092BE8D9FFF71A
:10360000ABFFFB79FF2B78D0FB791B11DBB203F00A
:103610000703DBB21A46920013445B00DAB2FB796F
:1036200003F00F03DBB21344DAB2374B9A713B7AE3
:103630001B11DBB203F00703DBB21A4692001344FE
:103640005B00DAB23B7A03F00F03DBB21344DAB269
:103650002D4B5A717B7A1B11DBB203F00303DBB2F3
:103660001A46920013445B00DAB27B7A03F00F0330
:10367000DBB21344DAB2244B1A71BB7A1B11DBB2F2
:1036800003F00303DBB21A46920013445B00DAB284
:10369000BB7A03F00F03DBB21344DAB21A4B1A7091
:1036A0003B7B1B11DBB203F00103DBB21A46920035
:1036B00013445B00DAB23B7B03F00F03DBB213442D
:1036C000DAB2114B5A707B7B1B09DBB21A469200AF
:1036D00013445B009AB27B7B03F00F039BB213444D
:1036E0009BB203F5FA639AB2074B5A8000F040F997
:1036F0000346064A1360012300E0002318461437EE
:10370000BD4690BD00340140301B0024381B00240E
:1037100080B483B000AF78607B6806491A460B46D8
:1037200003CB1060516078680C37BD465DF8047BB0
:10373000704700BF301B002480B586B000AF7860B2
:10374000FF237B7508233B737B689B79834AA2FB2D
:103750000323DB08DBB21B015BB203F0700358B23A
:103760007B689A797D4BA3FB0213D9080B469B001B
:103770000B445B00D31ADBB25BB203F00F035BB206
:1037800003435BB2DBB27B737B685B79734AA2FB5A
:103790000323DB08DBB21B015BB203F0700358B2FA
:1037A0007B685A796D4BA3FB0213D9080B469B002B
:1037B0000B445B00D31ADBB25BB203F00F035BB2C6
:1037C00003435BB2DBB2BB737B681B79634AA2FB2A
:1037D0000323DB08DBB21B015BB203F0300358B2FA
:1037E0007B681A795D4BA3FB0213D9080B469B003B
:1037F0000B445B00D31ADBB25BB203F00F035BB286
:1038000003435BB2DBB2FB737B681B78534AA2FBBA
:103810000323DB08DBB21B015BB203F0300358B2B9
:103820007B681A784D4BA3FB0213D9080B469B000B
:103830000B445B00D31ADBB25BB203F00F035BB245
:1038400003435BB2DBB23B7401237B747B685B7820
:10385000424AA2FB0323DB08DBB21B015BB203F08D
:10386000100358B27B685A783C4BA3FB0213D9086B
:103870000B469B000B445B00D31ADBB25BB203F038
:103880000F035BB203435BB2DBB2BB747B685B8844
:10389000A3F5FA63324A82FB03129210DB17D31AA4
:1038A0001B0158B27B685B88A3F5FA622C4B83FB43
:1038B00002139910D317C91A0B469B000B445B00E7
:1038C000D11A4BB203F00F035BB203435BB2DBB21E
:1038D000FB7400233B75FFF735FE0023FB8215E0E8
:1038E000FB8A18333B4413F80C3C19461D4800F082
:1038F000C7F903467B7597F91530002B03D0FFF706
:103900002BFE002325E0FB8A0133FB82FB8A082B78
:10391000E6D9FFF721FE7B689A79134B9A717B6891
:103920005A79114B5A717B681A790F4B1A717B685F
:103930001A780D4B1A707B685A780B4B5A707B685B
:103940005A88094B5A8000F013F80346074A13605F
:10395000012318461837BD4680BD00BFCDCCCCCC66
:103960006766666600340140301B0024381B002463
:10397000B0B58CB000AF184B5B889BB2A3F26C73F0
:10398000BB61154B5B78DBB2013B7B61124B1B7853
:10399000DBB23B61104B1B79DBB2FB600E4B5B79FA
:1039A000DBB2BB600C4B9B79DBB27B604FF0FF332B
:1039B0007B623B1D184614F0A7FFC7E90A01D7E94F
:1039C0000A230649541843F1FF35C7E90A45BB6A83
:1039D00018463037BD46B0BD301B0024909DFFFF18
:1039E00080B500AFFFF7E4FD0346184680BD000038
:1039F00090B587B000AF786007F10C030A22FF2171
:103A0000184614F05DFE88233B73FFF79BFD0023EF
:103A1000FB7513E0FB7D18333B4413F80C3CFC7D35
:103A20001946474800F0E8F803461A4604F118031F
:103A30003B4403F80C2CFB7D0133FB75FB7D092B0C
:103A4000E8D9FFF789FDFB7BFF2B73D0FB7B1B11B4
:103A5000DBB203F00703DBB21A46920013445B00AB
:103A6000DAB2FB7B03F00F03DBB21344DAB27B68FC
:103A70009A713B7C1B11DBB203F00703DBB21A46E1
:103A8000920013445B00DAB23B7C03F00F03DBB21D
:103A90001344DAB27B685A717B7C1B11DBB203F0F2
:103AA0000303DBB21A46920013445B00DAB27B7C5C
:103AB00003F00F03DBB21344DAB27B681A71BB7CEC
:103AC0001B11DBB203F00303DBB21A46920013446E
:103AD0005B00DAB2BB7C03F00F03DBB21344DAB253
:103AE0007B681A703B7D1B11DBB203F00103DBB274
:103AF0001A46920013445B00DAB23B7D03F00F03D9
:103B0000DBB21344DAB27B685A707B7D1B09DBB2EF
:103B10001A46920013445B009AB27B7D03F00F03B8
:103B20009BB213449BB203F5FA639AB27B685A8046
:103B3000012300E0002318461C37BD4690BD00BF9E
:103B40000034014090B585B000AFF860FC683B469A
:103B50001846FFF7DDFD22463B4619685B68116099
:103B6000536000BF1437BD4690BD80B483B000AF32
:103B700078607B685B6903F48053B3F5805F01D1A3
:103B8000012300E0002318460C37BD465DF8047B96
:103B9000704780B483B000AF78607B685B6903F4E2
:103BA0000043B3F5004F01D1012300E00023184684
:103BB0000C37BD465DF8047B704780B483B000AF1E
:103BC00078607B6830331B78DBB218460C37BD4613
:103BD0005DF8047B704780B483B000AF78600B461B
:103BE000FB707B682033FA781A7000BF0C37BD4633
:103BF0005DF8047B7047000080B584B000AF78604A
:103C00000B46FB701B4BFB60FB7819467868FFF78F
:103C1000E2FF0AE0FB68002B04D1174812F060F9BC
:103C2000FE2323E0FB68013BFB607868FFF79DFF04
:103C30000346002BEED00F4BFB600AE0FB68002B25
:103C400004D10E4812F04CF9FF230FE0FB68013B52
:103C5000FB607868FFF79DFF0346002BEED0012044
:103C600002F0BEF87868FFF7A8FF03461846103741
:103C7000BD4680BD20A107001CDF010844DF01080C
:103C800080B584B000AF78600B46FB70104BFB60D2
:103C9000FB7819467868FFF79EFF0BE0FB68002B66
:103CA00005D10C4812F01CF94FF0FF330CE0FB6813
:103CB000013BFB607868FFF758FF0346002BEDD10E
:103CC0007868FFF77AFF002318461037BD4680BD9D
:103CD00020A107006CDF010880B400AF054B1B6812
:103CE000044A43F48033136000BFBD465DF8047B93
:103CF000704700BF0044025880B400AF074B1B68F8
:103D000003F40033B3F5003F01D1012300E00023A9
:103D10001846BD465DF8047B704700BF004402585A
:103D200080B400AF054B1B68044A43F48053136012
:103D300000BFBD465DF8047B704700BF00440258D9
:103D400080B400AF074B1B6803F40053B3F5005F6A
:103D500001D1012300E000231846BD465DF8047B35
:103D6000704700BF0044025880B483B000AF786051
:103D7000064B1B6923F0070204497B6813430B6160
:103D800000BF0C37BD465DF8047B70470044025805
:103D900080B400AF044B1B6903F038031846BD46DE
:103DA0005DF8047B704700BF0044025880B483B0C4
:103DB00000AF7860064B9B6923F4706204497B680E
:103DC00013438B6100BF0C37BD465DF8047B704721
:103DD0000044025880B483B000AF7860064B9B6902
:103DE00023F00F0204497B6813438B6100BF0C373B
:103DF000BD465DF8047B70470044025880B483B030
:103E000000AF7860064BDB6923F0700204497B68E1
:103E10001343CB6100BF0C37BD465DF8047B704790
:103E20000044025880B483B000AF7860064BDB6971
:103E300023F4E06204497B681343CB6100BF0C3775
:103E4000BD465DF8047B70470044025880B483B0DF
:103E500000AF7860064B9B6923F0700204497B68D1
:103E600013438B6100BF0C37BD465DF8047B704780
:103E70000044025880B483B000AF7860064B1B6AE0
:103E800023F0700204497B6813430B6200BF0C37B8
:103E9000BD465DF8047B70470044025880B485B08D
:103EA00000AF78607B68DAB2104B1344FB60FB68AC
:103EB0001A687B68190E7B681B0A03F01F0301FA5E
:103EC00003F3DB431A407B681B0CD9B27B681B0AE7
:103ED00003F01F0301FA03F31A43FB681A6000BFE3
:103EE0001437BD465DF8047B704700BF4C44025850
:103EF00080B582B000AF78607868FFF7CFFF00BF71
:103F00000837BD4680BD000080B483B000AF786044
:103F1000064B9B6A23F0030204497B6813438B62C0
:103F200000BF0C37BD465DF8047B70470044025863
:103F300080B400AF054B1B68044A43F080731360E4
:103F400000BFBD465DF8047B704700BF00440258C7
:103F500080B400AF074B1B6803F00073B3F1007F20
:103F600001D1012300E000231846BD465DF8047B23
:103F7000704700BF0044025880B400AF054BDB6AB5
:103F8000044A43F48033D36200BFBD465DF8047B2E
:103F9000704700BF0044025880B400AF054BDB6A95
:103FA000044A43F40033D36200BFBD465DF8047B8E
:103FB000704700BF0044025880B400AF054BDB6A75
:103FC000044A43F48023D36200BFBD465DF8047BFE
:103FD000704700BF0044025880B483B000AF7860DF
:103FE000074BDB6A23F002027B685B000449134342
:103FF000CB6200BF0C37BD465DF8047B704700BF45
:104000000044025880B483B000AF7860074BDB6A8D
:1040100023F00C027B689B0004491343CB6200BF72
:104020000C37BD465DF8047B704700BF0044025862
:1040300080B483B000AF7860074B1A6B074B134016
:104040007A68013A044913430B6300BF0C37BD463D
:104050005DF8047B704700BF0044025800FEFFFF7C
:1040600080B483B000AF7860074B9B6A23F47C7206
:104070007B681B01044913438B6200BF0C37BD46AC
:104080005DF8047B704700BF0044025880B483B0E1
:1040900000AF7860074B1B6B23F47E427B68013BCB
:1040A0005B02044913430B6300BF0C37BD465DF848
:1040B000047B70470044025880B483B000AF78603E
:1040C000074B1B6B23F4FE027B68013B1B04044976
:1040D00013430B6300BF0C37BD465DF8047B70478C
:1040E0000044025880B483B000AF7860074B1B6B6C
:1040F00023F0FE427B68013B1B06044913430B631C
:1041000000BF0C37BD465DF8047B70470044025881
:1041100080B400AF054B1B68044A43F08063136012
:1041200000BFBD465DF8047B704700BF00440258E5
:1041300080B400AF074B1B6803F00063B3F1006F5E
:1041400001D1012300E000231846BD465DF8047B41
:10415000704700BF0044025880B400AF054BDB6AD3
:10416000044A43F48013D36200BFBD465DF8047B6C
:10417000704700BF0044025880B483B000AF78603D
:10418000074BDB6A23F020027B685B010449134381
:10419000CB6200BF0C37BD465DF8047B704700BFA3
:1041A0000044025880B483B000AF7860074BDB6AEC
:1041B00023F0C0027B689B0104491343CB6200BF1C
:1041C0000C37BD465DF8047B704700BF00440258C1
:1041D00080B483B000AF7860074B9A6B074B1340F5
:1041E0007A68013A044913438B6300BF0C37BD461C
:1041F0005DF8047B704700BF0044025800FEFFFFDB
:1042000080B483B000AF7860074B9B6A23F47C32A4
:104210007B681B03044913438B6200BF0C37BD4608
:104220005DF8047B704700BF0044025880B483B03F
:1042300000AF7860074B9B6B23F47E427B68013BA9
:104240005B02044913438B6300BF0C37BD465DF826
:10425000047B70470044025880B483B000AF78609C
:10426000074B9B6B23F4FE027B68013B1B04044954
:1042700013438B6300BF0C37BD465DF8047B70476A
:104280000044025880B483B000AF7860074B9B6B4A
:1042900023F0FE427B68013B1B06044913438B63FA
:1042A00000BF0C37BD465DF8047B704700440258E0
:1042B00080B485B000AF78600A4BD3F8E02009499C
:1042C0007B681343C1F8E030064BD3F8E0207B68ED
:1042D0001340FB60FB6800BF1437BD465DF8047BEC
:1042E000704700BF0044025880B485B000AF7860CA
:1042F0000A4BD3F8F02009497B681343C1F8F0302A
:10430000064BD3F8F0207B681340FB60FB6800BFCE
:104310001437BD465DF8047B704700BF0044025867
:1043200080B483B000AF7860064B1B6823F00F02A7
:1043300004497B6813430B6000BF0C37BD465DF832
:10434000047B70470020005280B400AF044B1B6810
:1043500003F00F031846BD465DF8047B704700BFAD
:104360000020005280B483B000AF7860084A7B68B8
:1043700043F001035360BFF34F8F00BFBFF36F8F54
:1043800000BF00BF0C37BD465DF8047B704700BF1F
:1043900090ED00E080B400AFBFF35F8F00BF044B2F
:1043A00000225A6000BFBD465DF8047B704700BF25
:1043B00090ED00E080B485B000AFF860B9607A603D
:1043C0003B600B4AFB689360094A7B6823F01F033C
:1043D000D360BB681A023B681343054A43F00103EC
:1043E000136100BF1437BD465DF8047B704700BF02
:1043F00090ED00E080B483B000AF7860064BDB68DE
:1044000023F03F0204497B681343CB6000BF0C37A5
:10441000BD465DF8047B70470048025880B483B005
:1044200000AF7860064B9B6923F4404204497B68E7
:1044300013438B6100BF0C37BD465DF8047B7047AA
:104440000048025880B400AF074B9B6903F4005347
:10445000B3F5005F01D1012300E000231846BD46FB
:104460005DF8047B704700BF0048025880B483B0F9
:1044700000AF78607B681B6843F001027B681A60BC
:1044800000BF0C37BD465DF8047B704780B483B035
:1044900000AF78607B681B6843F400727B681A6029
:1044A00000BF0C37BD465DF8047B704780B483B015
:1044B00000AF786039607B68DB6823F460123B688A
:1044C0001A437B68DA6000BF0C37BD465DF8047B99
:1044D000704780B483B000AF786039607B689B68B8
:1044E00023F4F0723B681A437B689A6000BF0C3774
:1044F000BD465DF8047B704780B483B000AF786040
:104500007B68DB6843F080427B68DA6000BF0C3771
:10451000BD465DF8047B704780B483B000AF78601F
:1045200039607B683A689A6100BF0C37BD465DF818
:10453000047B704780B483B000AF786039603B681B
:104540001A047B689A6100BF0C37BD465DF8047B96
:104550007047000080B5ADF52C7D34AF00F030FB26
:104560004FF6FF73C7F8DC3100BF534B1B6803F4F1
:104570000043002B06D0D7F8DC315A1EC7F8DC21E7
:10458000002BF2DCD7F8DC31002B01DA00F02AFB3B
:1045900001F094FB00F0A2F800F01CF9464BD3F8B0
:1045A000E030454A43F00073C2F8E030424BD3F8A4
:1045B000E03003F0007207F5F073A3F5F0731A60B2
:1045C00007F5F073A3F5F0731B68002001F006FFF8
:1045D0000021002001F01CFF4FF6FF73C7F8DC310B
:1045E00000BF354B1B6803F40043002B06D1D7F8FE
:1045F000DC315A1EC7F8DC21002BF2DCD7F8DC31A5
:10460000002B01DA00F0EEFA2C4B1B684FF48062AD
:104610002B491846FEF7FCFB2A4B1B684FF48062BF
:1046200029491846FEF7F4FB00F038FA00F0EAF9E1
:10463000FDF756FE00F0F2F811F028FB00F012F939
:1046400000F078F9FDF720FF204A07F58273114644
:10465000D622184614F067FE3B1D3293684607F5D4
:104660008A73C622194614F05EFE07F582730FCBDB
:10467000FEF7E6F9164B1B78002B0AD13B1D1946B5
:104680001448FEF7B5F80346002B02D0124811F08B
:1046900027FCFEF725FAFDF7F9FD01F0C7FA01F056
:1046A00063F9FCF7EDFA01F079F900F0EBFDFEF7A4
:1046B00041FBFEF745FBFCE7004402584C01002497
:1046C000280400384801002414000038C0DF010825
:1046D000E506002490DF0108A0DF010880B500AFE7
:1046E0000220FFF71DFE00BFFFF72EFE0346022B40
:1046F000FAD10220FFF77EFE4FF40040FFF78EFE56
:1047000000BFFFF79FFE0346002BFAD0FFF7E4FA45
:1047100000BFFFF7F1FA0346012BFAD1FFF700FBC8
:1047200000BFFFF70DFB0346012BFAD10220FFF774
:10473000EBFBFFF721FCFFF72FFCFFF73DFC02200E
:10474000FFF760FC0020FFF747FC0520FFF788FC1F
:104750006020FFF76DFC0220FFF798FC0820FFF7B0
:10476000ABFC0420FFF7BEFCFFF7E2FB00BFFFF746
:10477000EFFB0346012BFAD10820FFF72BFB0320A8
:10478000FFF7F2FA00BFFFF703FB0346182BFAD13D
:104790000020FFF70BFB0820FFF71CFB4020FFF772
:1047A0002DFB4FF48060FFF73DFB4020FFF74EFBF1
:1047B0004020FFF75FFB064809F0F2FC0F2001F0F4
:1047C000B9FA0346002B01D000F00CFA00BF80BDFF
:1047D000001C4E0E80B500AFFFF7BEFC0220FFF7B5
:1047E000E1FC0020FFF7C8FC0520FFF709FD3020A1
:1047F000FFF7EEFC0220FFF719FD1E20FFF72CFD4E
:104800000420FFF73FFDFFF783FC00BFFFF790FC9C
:104810000346012BFAD100BF00BF80BD80B500AFB9
:104820000E4B0F4A1A600D4B00225A600B4B0022B0
:104830009A600A4B4FF48042DA60084B00221A61FA
:10484000064B05225A61054801F0F6FD0346002B90
:1048500001D000F0C7F900BF80BD00BFB01D00242B
:104860000024024880B590B000AF07F11803282259
:104870000021184613F024FF3B4600221A605A60BC
:104880009A60DA601A615A612748FFF731FB4FF4EA
:104890000050FFF729FD1020FFF70AFD4FF4835366
:1048A0003B6002237B600323BB600023FB6000238B
:1048B0003B6105237B613B4619461C4807F04CFBD6
:1048C0000023BB614FF48003FB6107233B6200239D
:1048D0007B624FF08073BB624FF08063FB624FF0EE
:1048E00000533B6300237B630023BB630023FB6314
:1048F00007F1180319460E4808F080F800210C480B
:10490000FFF7D4FD00210A48FFF7E3FD0848FFF751
:10491000F3FD0748FFF7AAFD0548FFF7B7FD00BF05
:104920004037BD4680BD00BF04100107001002588B
:104930000034014080B590B000AF07F11803282281
:104940000021184613F0BCFE3B4600221A605A6054
:104950009A60DA601A615A612748FFF7C9FA4FF482
:104960008010FFF7C1FC2020FFF7A2FC4FF460731A
:104970003B6002237B600023BB600023FB600023BD
:104980003B6105237B613B4619461C4807F0E4FA6E
:104990000023BB614FF48003FB6107233B620023CC
:1049A0007B624FF08073BB624FF08063FB624FF01D
:1049B00080433B6300237B630023BB630023FB63D3
:1049C00007F1180319460E4808F018F800210C48A2
:1049D000FFF76CFD00210A48FFF77BFD0848FFF751
:1049E0008BFD0748FFF742FD0548FFF74FFD00BF6D
:1049F0004037BD4680BD00BF0410010700140258B7
:104A00000050014080B500AF224B234A1A60214B71
:104A10004FF4E1325A601F4B00229A601D4B002276
:104A2000DA601C4B00221A611A4B0C225A61194B96
:104A300000229A61174B0022DA61164B00221A629B
:104A4000144B00225A62134B00229A62114806F05E
:104A50003FF80346002B01D000F0C4F800210D48B8
:104A600007F0D5F80346002B01D000F0BBF8002179
:104A7000084807F00AF90346002B01D000F0B2F80D
:104A8000044807F08BF80346002B01D000F0AAF889
:104A900000BF80BD242000240044004080B586B0C3
:104AA00000AF3B4600221A605A609A60DA601A61D1
:104AB0005A611020FFF7FCFB2020FFF7F9FB0420D0
:104AC000FFF7F6FB0120FFF7F3FB0220FFF7F0FBF7
:104AD0000820FFF7EDFB4020FFF7EAFB4EF2100144
:104AE0002A48FFF727FD4FF480612948FFF722FD90
:104AF0004FF482612748FFF71DFD4FF400712648EF
:104B0000FFF70AFD4EF210033B6001237B60002398
:104B1000BB600023FB6000233B613B4619461B48FA
:104B200007F01AFA4FF480633B6001237B60002397
:104B3000BB600023FB6000233B613B4619461448E1
:104B400007F00AFA4FF482633B6001237B60002385
:104B5000BB600023FB6000233B613B4619460D48C8
:104B600007F0FAF94FF400733B6001237B600023E8
:104B7000BB600023FB6000233B613B4619460648AF
:104B800007F0EAF900BF1837BD4680BD0010025893
:104B900000140258000C02580004025880B582B07C
:104BA00000AF7860391D4FF6FF730122034805F00E
:104BB000DFFF7B6818460837BD4680BD24200024EF
:104BC00080B500AFFFF7E6FB054B002287210020F0
:104BD000FFF7F0FB0420FFF7C5FB00BF80BD00BF5F
:104BE0003E00041080B500AF0B4813F0F9FB012222
:104BF0004FF48061094801F0D7FB322001F0F0F852
:104C000000224FF48061054801F0CEFB322001F014
:104C1000E7F800BFEBE700BF98E001080014025876
:104C200080B485B000AF78607B68DAB2104B134473
:104C3000FB60FB681A687B68190E7B681B0A03F02F
:104C40001F0301FA03F3DB431A407B681B0CD9B244
:104C50007B681B0A03F01F0301FA03F31A43FB6886
:104C60001A6000BF1437BD465DF8047B704700BF73
:104C70004C44025880B582B000AF78607868FFF786
:104C8000CFFF00BF0837BD4680BD000080B483B0B1
:104C900000AF7860064BDB6C23F4803204497B68FC
:104CA0001343CB6400BF0C37BD465DF8047B7047EF
:104CB0000044025880B483B000AF0A4BD3F8F430FC
:104CC000084A43F00203C2F8F430064BD3F8F4303C
:104CD00003F002037B607B6800BF0C37BD465DF8C4
:104CE000047B70470044025880B590B000AF7860F4
:104CF00007F12C0300221A605A609A60DA601A6188
:104D00007B681B687F4A934259D10020FFF7BEFFA2
:104D10007D4BD3F8D4307C4A43F48033C2F8D4308E
:104D2000794BD3F8D43003F48033BB62BB6A764B43
:104D3000D3F8E030744A43F00403C2F8E030724B19
:104D4000D3F8E03003F004037B627B6A6E4BD3F848
:104D5000E0306D4A43F00803C2F8E0306A4BD3F804
:104D6000E03003F008033B623B6A4FF4F853FB6208
:104D700002233B6301237B630323BB630C23FB639D
:104D800007F12C031946614801F05EF90423FB6228
:104D900002233B6301237B630323BB630C23FB637D
:104DA00007F12C0319465A4801F04EF90022002160
:104DB000312001F014F9312001F02BF99DE07B68DE
:104DC0001B68544A934240F098800020FFF75EFF32
:104DD0004D4BD3F8DC304C4A43F40073C2F8DC305E
:104DE000494BD3F8DC3003F40073FB61FB69464B9D
:104DF000D3F8E030444A43F00403C2F8E030424BB9
:104E0000D3F8E03003F00403BB61BB693E4BD3F839
:104E1000E0303D4A43F00103C2F8E0303A4BD3F8AA
:104E2000E03003F001037B617B69374BD3F8E0305E
:104E3000354A43F00203C2F8E030334BD3F8E03098
:104E400003F002033B613B692F4BD3F8E0302E4A5D
:104E500043F04003C2F8E0302B4BD3F8E03003F0CE
:104E60004003FB60FB680223FB6202233B630123D8
:104E70007B630323BB630923FB6307F12C03194600
:104E8000224801F0E1F80123FB6202233B63012386
:104E90007B630323BB630923FB6307F12C031946E0
:104EA0001D4801F0D1F84CF21003FB6202233B6372
:104EB00001237B630323BB630923FB6307F12C03FB
:104EC0001946164801F0C0F84FF40063FB62022354
:104ED0003B6301237B630323BB630A23FB6307F16B
:104EE0002C0319460E4801F0AFF8002200217C2067
:104EF00001F075F87C2001F08CF800BF4037BD460A
:104F000080BD00BF007000520044025800080258E3
:104F1000000C025800240248000002580004025805
:104F20000018025880B58AB000AF786007F114030A
:104F300000221A605A609A60DA601A617B681B6806
:104F40002B4A93424FD12B48FFF794FE2A4BD3F8BC
:104F5000E830294A43F40033C2F8E830264BD3F84E
:104F6000E83003F400333B613B69234BD3F8E03076
:104F7000214A43F00103C2F8E0301F4BD3F8E03080
:104F800003F00103FB60FB681B4BD3F8E0301A4AC7
:104F900043F00803C2F8E030174BD3F8E03003F0D9
:104FA0000803BB60BB6804237B610223BB61002351
:104FB000FB6100233B6207237B6207F11403194660
:104FC0000E4801F041F840237B610223BB610023BE
:104FD000FB6100233B6207237B6207F11403194640
:104FE000074801F031F800BF2837BD4680BD00BF3B
:104FF0000044004008000007004402580000025826
:10500000000C025880B400AF00BFFDE780B400AFD1
:1050100000BFFDE780B400AF00BFFDE780B400AF84
:1050200000BFFDE780B400AF00BFFDE780B400AF74
:1050300000BFBD465DF8047B704780B400AF00BF81
:10504000BD465DF8047B704780B400AF00BFBD462D
:105050005DF8047B704780B500AF00F0A1FEFDF75E
:10506000D5FD00BF80BD000080B500AF024801F053
:10507000EBFD00BF80BD00BF3C1B002480B500AF2E
:10508000024803F052F800BF80BD00BF2036002464
:1050900080B500AF024801F0D7FD00BF80BD00BF62
:1050A000B01D002480B400AF01231846BD465DF852
:1050B000047B704780B582B000AF7860396014F02F
:1050C000FBF8034616221A604FF0FF3318460837E4
:1050D000BD4680BD80B582B000AF78604FF0FF3133
:1050E0007868FFF7E7FF00BFFDE780B586B000AF47
:1050F000F860B9607A6000237B610AE0AFF300805A
:105100000146BB685A1CBA60CAB21A707B69013387
:105110007B617A697B689A42F0DB7B6818461837B6
:10512000BD4680BD80B586B000AFF860B9607A60DA
:1051300000237B6109E0BB685A1CBA601B781846E3
:10514000FFF72CFD7B6901337B617A697B689A42AA
:10515000F1DB7B6818461837BD4680BD80B483B04C
:1051600000AF78604FF0FF3318460C37BD465DF84E
:10517000047B704780B483B000AF786039603B68CF
:105180004FF400525A60002318460C37BD465DF8B4
:10519000047B704780B483B000AF78600123184669
:1051A0000C37BD465DF8047B704780B485B000AF16
:1051B000F860B9607A60002318461437BD465DF880
:1051C000047B704780B586B000AF7860144A154BF9
:1051D000D31A7B617B693B61134B1B68002B02D1A7
:1051E000114B124A1A60104B1A687B6813443A69D3
:1051F0009A4207D214F060F803460C221A604FF06E
:10520000FF3309E0084B1B68FB60074B1A687B689B
:105210001344054A1360FB6818461837BD4680BD25
:105220000000082400080000BC200024983E002450
:10523000DFF834D0FEF7D2F80C480D490D4A0023B0
:1052400002E0D458C4500433C4188C42F9D30A4A3B
:105250000A4C002301E013600432A242FBD314F095
:1052600031F8FFF777F970470000082400000024A8
:10527000D8040024FCED0108D8040024943E002446
:10528000FEE7000080B500AF02490348FDF77EFC51
:1052900000BF80BD640100246001002480B58CB093
:1052A00002AF7860396007F108007B6800933B68C3
:1052B000064A1E2113F09CF807F10803184610F067
:1052C0000FFE00BF2837BD4680BD00BFA8E0010823
:1052D000F0B5ADF2144D34AF904B1B78002B08D0D5
:1052E0008F4B1B78DBB20133DAB28D4B1A7000F0B2
:1052F000EBF98C4B1B78DBB2002B00F0CB818A4B97
:10530000C7F83C33894B1C68D7F83C03FBF748F8D7
:1053100003461A46D7F83C132046FDF79AFD07F5D9
:105320004D7300221A605A6007F54D731846FEF758
:1053300009FCB7F836331E4697F8353397F834230F
:1053400097F8381397F83903044697F83A03054657
:1053500007F14000049503940291019200933346B3
:10536000734A802113F044F801213720FFF796FF9C
:1053700007F14003184610F0B3FD07213C20FFF76A
:105380008DFF664B1B78002B01D06A4B00E06A4B07
:1053900007F14000694A802113F02AF807F1400321
:1053A000184610F09DFD08213C20FFF777FF5B4B6E
:1053B000D3ED017AB7EEE77A07F140038DED007B7C
:1053C0005F4A8021184613F013F807F1400318468E
:1053D00010F086FD09213C20FFF760FF4F4BD3ED15
:1053E000027AB7EEE77A07F140038DED007B544A6D
:1053F0008021184612F0FCFF07F14003184610F018
:105400006FFD052000F0ECFC4E4B1B7838464E4AF1
:10541000402112F0EDFF454B1C683B461846FAF759
:10542000BFFF02463B4619462046FDF712FD0D21FF
:105430003C20FFF733FF434B1B7807F14000434A02
:10544000802112F0D5FF07F14003184610F048FD07
:105450000E213C20FFF722FF3A4B5B8807F140000A
:105460003B4A802112F0C4FF07F14003184610F0B8
:1054700037FD0F213C20FFF711FF324BD3ED017AAE
:10548000B7EEE77A07F140038DED007B314A8021CA
:10549000184612F0ADFF07F14003184610F020FD4A
:1054A00010213C20FFF7FAFE264BD3ED027AB7EE2F
:1054B000E77A07F140038DED007B264A80211846EC
:1054C00012F096FF07F14003184610F009FDB7F8F7
:1054D0003633194697F8353397F8342307F5497072
:1054E000019200930B461C4A0E2112F081FF97F89F
:1054F0003833194697F8393397F83A2307F5467049
:10550000019200930B46154A0C2112F071FF034BD8
:105510001B78002B26D0124B25E000BF540100243D
:10552000CC200024CD200024B4E001084C0100244C
:10553000CCE00108ECE00108F0E00108F4E001082B
:10554000F8E00108C020002400E1010818E101088A
:105550001CE1010824E101082CE101083CE10108FB
:105560004CE101084E4B4F4AD2ED017AB7EEE77A93
:105570004C4AD2ED026AB7EEE66A4B4A12781146FF
:10558000494A52881446484AD2ED015AB7EEE55AC4
:10559000454AD2ED024AB7EEE44A07F1C0008DED6C
:1055A000084B8DED065B059404918DED026B8DED3E
:1055B000007B3E4A802112F01BFF07F55073A3F5D4
:1055C00000731846D6231A46002113F079F807F520
:1055D000497107F5A0730B22184613F098F807F5E8
:1055E000467107F5A0730C330822184613F08FF8A4
:1055F00007F5467107F5A07315331322184613F00B
:1056000086F807F1C00107F5A07356337F221846CC
:1056100013F07DF807F55073A3F50073022283F8A9
:10562000292007F5A0732A3309222149184613F0CF
:105630006EF807F5A07334331F221E49184613F085
:1056400066F807F55073A3F500730022A3F8542001
:1056500007F55073A3F5007407F506733293684697
:1056600004F11003C622194613F05DFE94E80F0002
:10567000FDF7E6F9104B1B78002B0BD107F50673ED
:1056800019460E48FDF7B4F80346002B02D00C482B
:1056900010F026FC00BF07F55177BD46F0BD00BFF6
:1056A00054E1010854010024C02000245CE10108F9
:1056B000D8E10108DCE10108E5060024E8E1010881
:1056C000F4E101080000000080B584B000AF564B43
:1056D0001B7883F00103DBB2002B05D000F074FBD4
:1056E000F860F86811F06CF8504B93ED017A4F4B6D
:1056F000D3ED027A77EE677AC7ED027AD7ED027AB8
:10570000B7EEE77A9FED466B27EE067BF7EEC77B99
:10571000C7ED017A454B93ED027AD7ED017A77EE2A
:10572000277A424BC3ED027A11F078F807EE900A1F
:10573000B8EEE77ADFED3E6AC7EE267AB7EEE77A93
:10574000B6EE006B37EE467BF7EEC77BC7ED007A0F
:10575000364B93ED027AD7ED007A77EE277A334B0A
:10576000C3ED027A314B93ED027A304BD3ED017ADF
:1057700077EE677AF0EEE77AB6EE007AF4EEC77A63
:10578000F1EE10FA09D5294B93ED017AD7ED007AA5
:1057900077EE677A254BC3ED027A264B1B78DBB296
:1057A000282B38D9214B93ED027A204BD3ED017A87
:1057B00077EE677AF0EEE77AB7EE007AF4EEC77A22
:1057C000F1EE10FA09DD194B93ED017AD7ED007A6D
:1057D00077EE677A154BC3ED027A144B93ED027A9C
:1057E000124BD3ED017A77EE677AF0EEE77AB0EEFE
:1057F000007AF4EEC77AF1EE10FA09DD0B4B93ED67
:10580000017AD7ED007A77EE277A084BC3ED027A5A
:10581000084B29221A7000BF1037BD4680BD00BF5B
:105820009A9999999999A93FCE200024540100246E
:105830000000004FCC20002480B483B000AF78601B
:1058400039607B683A689A6100BF0C37BD465DF8E5
:10585000047B704780B483B000AF786039603B68E8
:105860001A047B689A6100BF0C37BD465DF8047B63
:105870007047000080B500AF4FF480610248FFF729
:10588000E9FF00BF80BD00BF0014025880B500AF23
:105890004FF480610248FFF7CFFF00BF80BD00BF1B
:1058A0000014025880B500AF0D4B1B78C3F34603BC
:1058B000DBB2032B11D801A252F823F0CD58000817
:1058C000D3580008D9580008D958000800F00AF841
:1058D00003E000F041F800E000BF00BF80BD00BF62
:1058E000D020002480B500AF1A4B1B7803F00103D1
:1058F000DBB2002B12D00020FDF732F90346002B5B
:1059000025D0144A13786FF300031370FFF7B2FF2A
:105910004FF47A710020FDF70DF918E00D4B1B785C
:1059200003F00103DBB2002B11D10020FDF718F9C1
:105930000346002B0BD0074A137843F00103137082
:10594000FFF7A4FF4FF47A710020FDF7F3F800BFD2
:1059500080BD00BFD020002480B400AF00BFBD4692
:105960005DF8047B7047000080B500AF084A1378EB
:105970006FF300031370064A13786FF34703137035
:10598000FFF784FF03490448FDF700F900BF80BD1D
:10599000D0200024780100247401002480B500AFD9
:1059A00002490348FDF7F2F800BF80BD90010024D2
:1059B0008C0100242DE9F04385B000AF0023FB608B
:1059C00049E06B461E462B4B1B681846FDF726FB2D
:1059D000B860FB68591C0B46013B7B6000230C46FA
:1059E0001D464FF000024FF00003EB0043EA5473F2
:1059F000E2000023884699464FF000024FF0000372
:105A00004FEAC90343EA58734FEAC802CB1DDB08CB
:105A1000DB00ADEB030D6B4600333B60FA68B96801
:105A2000386812F074FE3A68FB68134400221A705A
:105A3000114B1B78DBB2002B03D0386800F01EF846
:105A400002E0386810F04CFA0A4B1B68F9681846F7
:105A5000FDF733FBB546074B1B681846FDF7FAFA0E
:105A6000F860FB68002BACD100BF00BF1437BD4607
:105A7000BDE8F08348010024CD20002480B584B027
:105A800000AF78601B49786812F054FE0346002B83
:105A90000DD007F10E031A461749786812F0FCFC86
:105AA0000346012B21D1FA89144B5A801DE0144979
:105AB000786812F03FFE0346002B16D007F108036A
:105AC0001A461049786812F0E7FC0346012B09D00A
:105AD00007F108031A460C49786812F0DDFC03460A
