:020000040810E2
:10000000008004108D42100891401008994010089B
:10001000A1401008A9401008B140100800000000DD
:10002000000000000000000000000000B9401008BF
:10003000C740100800000000D5401008E340100839
:10004000DD421008DD421008DD421008DD421008D4
:10005000DD421008DD421008DD421008DD421008C4
:10006000DD421008DD421008DD421008DD421008B4
:10007000DD421008DD421008DD421008DD421008A4
:10008000DD421008DD421008DD421008DD42100894
:10009000DD421008DD421008DD421008DD42100884
:1000A000DD421008DD421008DD421008DD42100874
:1000B000DD421008DD421008DD421008DD42100864
:1000C000DD421008DD421008DD421008DD42100854
:1000D000DD421008DD421008DD421008DD42100844
:1000E000DD421008DD42100800000000DD4210086B
:1000F000DD421008DD421008DD421008DD42100824
:10010000DD421008DD421008DD421008DD42100813
:10011000DD421008DD421008DD421008DD42100803
:10012000DD421008DD421008DD421008DD421008F3
:10013000DD421008DD421008DD421008DD421008E3
:10014000DD421008DD421008000000000000000041
:10015000DD421008DD421008DD421008DD421008C3
:10016000DD421008DD421008DD421008DD421008B3
:10017000DD421008DD421008DD42100800000000DA
:10018000DD421008DD421008F3401008DD4210087F
:10019000DD421008DD421008DD421008DD42100883
:1001A000DD421008DD421008DD421008DD42100873
:1001B000DD421008DD421008DD421008DD42100863
:1001C000DD421008DD421008DD421008DD42100853
:1001D000DD421008DD421008DD421008DD42100843
:1001E000DD421008DD421008DD421008DD42100833
:1001F000DD421008DD421008DD421008DD42100823
:10020000DD421008DD421008DD421008DD42100812
:10021000DD421008DD421008DD421008DD42100802
:10022000DD421008DD421008DD4210080000000029
:10023000DD421008DD421008DD421008DD421008E2
:10024000DD421008DD421008DD421008DD421008D2
:10025000DD421008DD421008DD421008DD421008C2
:10026000DD421008DD421008DD421008DD421008B2
:10027000DD421008DD421008DD421008DD421008A2
:10028000DD421008DD421008DD42100800000000C9
:08029000DD421008DD421008F8
:1002A00010B5054C237833B9044B13B10448AFF3B0
:1002B00000800123237010BD200200100000000008
:1002C000C0AE100808B5034B1BB103490348AFF398
:1002D000008008BD0000000024020010C0AE10081D
:1002E00010F8012B11F8013B012A28BF9A42F7D0E0
:1002F000D01A70470000000000000000000000005D
:1003000001F0FF01102A2BDB10F0070F08D010F8C6
:10031000013B013A8B422DD010F0070F42B3F6D1CA
:10032000F0B441EA012141EA014122F007047FF0E3
:1003300000070023F0E80256083C85EA010586EA3A
:10034000010685FA47F5A3FA87F586FA47F6A5FA76
:1003500087F68EB9EED1F0BC01F0FF0102F0070282
:1003600032B110F8013B013A83EA010313B1F8D12D
:100370000020704701387047002D06BF354603380E
:10038000073815F0010F07D1013015F4807F02BF47
:10039000013015F4C03F0130F0BC0138704700BF98
:1003A000034613F8012B002AFBD1181A01387047B5
:1003B00081F0004102E000BF83F0004330B54FEA16
:1003C00041044FEA430594EA050F08BF90EA020F83
:1003D0001FBF54EA000C55EA020C7FEA645C7FEA16
:1003E000655C00F0E2804FEA5454D4EB5555B8BF39
:1003F0006D420CDD2C4480EA020281EA030382EAAA
:10040000000083EA010180EA020281EA0303362D3B
:1004100088BF30BD11F0004F4FEA01314FF4801C0E
:100420004CEA113102D0404261EB410113F0004F20
:100430004FEA03334CEA133302D0524263EB4303D7
:1004400094EA050F00F0A780A4F10104D5F1200E75
:100450000DDB02FA0EFC22FA05F2801841F10001D0
:1004600003FA0EF2801843FA05F359410EE0A5F1A4
:1004700020050EF1200E012A03FA0EFC28BF4CF0D5
:10048000020C43FA05F3C01851EBE37101F000458B
:1004900007D54FF0000EDCF1000C7EEB00006EEB98
:1004A0000101B1F5801F1BD3B1F5001F0CD3490822
:1004B0005FEA30004FEA3C0C04F101044FEA445279
:1004C00012F5800F80F09A80BCF1004F08BF5FEA00
:1004D000500C50F1000041EB045141EA050130BDE0
:1004E0005FEA4C0C404141EB0101013C28BFB1F5F2
:1004F000801FE9D291F0000F04BF01460020B1FA3D
:1005000081F308BF2033A3F10B03B3F120020CDA0F
:100510000C3208DD02F1140CC2F10C0201FA0CF0ED
:1005200021FA02F10CE002F11402D8BFC2F1200C52
:1005300001FA02F120FA0CFCDCBF41EA0C01904008
:10054000E41AA2BF01EB0451294330BD6FEA040451
:100550001F3C1CDA0C340EDC04F11404C4F120023C
:1005600020FA04F001FA02F340EA030021FA04F34E
:1005700045EA030130BDC4F10C04C4F1200220FAA5
:1005800002F001FA04F340EA0300294630BD21FAE3
:1005900004F0294630BD94F0000F83F4801306BFA9
:1005A00081F480110134013D4EE77FEA645C18BF9D
:1005B0007FEA655C29D094EA050F08BF90EA020F34
:1005C00005D054EA000C04BF1946104630BD91EA2C
:1005D000030F1EBF0021002030BD5FEA545C05D12F
:1005E0004000494128BF41F0004130BD14F580046E
:1005F0003CBF01F5801130BD01F0004545F0FE41E2
:1006000041F470014FF0000030BD7FEA645C1ABF16
:10061000194610467FEA655C1CBF0B46024650EA4D
:10062000013406BF52EA033591EA030F41F4002179
:1006300030BD00BF90F0000F04BF0021704730B5FF
:100640004FF4806404F132044FF000054FF00001D4
:1006500050E700BF90F0000F04BF0021704730B595
:100660004FF4806404F1320410F0004548BF40426A
:100670004FF000013EE700BF42004FEAE2014FEABF
:1006800031014FEA02701FBF12F07F4393F07F4F9A
:1006900081F06051704732F07F4208BF704793F09D
:1006A0007F4F04BF41F40021704730B54FF46074B0
:1006B00001F0004521F000411CE700BF50EA0102B3
:1006C00008BF704730B54FF000050AE050EA01025C
:1006D00008BF704730B511F0004502D5404261EBCC
:1006E00041014FF4806404F132045FEA915C3FF40D
:1006F000D8AE4FF003025FEADC0C18BF03325FEAAA
:10070000DC0C18BF033202EBDC02C2F1200300FA5A
:1007100003FC20FA02F001FA03FE40EA0E0021FA7F
:1007200002F11444BDE600BF70B54FF0FF0C4CF46D
:10073000E06C1CEA11541DBF1CEA135594EA0C0F1F
:1007400095EA0C0F00F0DEF82C4481EA030621EA5A
:100750004C5123EA4C5350EA013518BF52EA033595
:1007600041F4801143F4801338D0A0FB02CE4FF047
:100770000005E1FB02E506F00042E0FB03E54FF077
:100780000006E1FB03569CF0000F18BF4EF0010E6F
:10079000A4F1FF04B6F5007F64F5407404D25FEA6B
:1007A0004E0E6D4146EB060642EAC62141EA55511E
:1007B0004FEAC52040EA5E504FEACE2EB4F1FD0C60
:1007C00088BFBCF5E06F1ED8BEF1004F08BF5FEADE
:1007D000500E50F1000041EB045170BD06F0004690
:1007E00046EA010140EA020081EA0301B4EB5C043D
:1007F000C2BFD4EB0C0541EA045170BD41F4801135
:100800004FF0000E013C00F3AB8014F1360FDEBF59
:10081000002001F0004170BDC4F10004203C35DA35
:100820000C341BDC04F11404C4F1200500FA05F3B8
:1008300020FA04F001FA05F240EA020001F0004259
:1008400021F0004110EBD37021FA04F642EB0601CF
:100850005EEA430E08BF20EAD37070BDC4F10C04F9
:10086000C4F1200500FA04F320FA05F001FA04F2BD
:1008700040EA020001F0004110EBD37041F10001A9
:100880005EEA430E08BF20EAD37070BDC4F12005B4
:1008900000FA05F24EEA020E20FA04F301FA05F21C
:1008A00043EA020321FA04F001F0004121FA04F2C4
:1008B00020EA020000EBD3705EEA430E08BF20EA94
:1008C000D37070BD94F0000F0FD101F000464000CE
:1008D00041EB010111F4801F08BF013CF7D041EA50
:1008E000060195F0000F18BF704703F00046520054
:1008F00043EB030313F4801F08BF013DF7D043EA25
:100900000603704794EA0C0F0CEA135518BF95EADA
:100910000C0F0CD050EA410618BF52EA4306D1D161
:1009200081EA030101F000414FF0000070BD50EA80
:10093000410606BF1046194652EA430619D094EA0A
:100940000C0F02D150EA013613D195EA0C0F05D1F4
:1009500052EA03361CBF104619460AD181EA030148
:1009600001F0004141F0FE4141F470014FF0000000
:1009700070BD41F0FE4141F4780170BD70B54FF09B
:10098000FF0C4CF4E06C1CEA11541DBF1CEA13551B
:1009900094EA0C0F95EA0C0F00F0A7F8A4EB0504FD
:1009A00081EA030E52EA03354FEA013100F08880F4
:1009B0004FEA03334FF0805545EA131343EA1263BD
:1009C0004FEA022245EA111545EA10654FEA002672
:1009D0000EF000419D4208BF964244F1FD0404F52B
:1009E000407402D25B084FEA3202B61A65EB030587
:1009F0005B084FEA32024FF480104FF4002CB6EB44
:100A0000020E75EB030E22BFB61A754640EA0C00C3
:100A10005B084FEA3202B6EB020E75EB030E22BF03
:100A2000B61A754640EA5C005B084FEA3202B6EB44
:100A3000020E75EB030E22BFB61A754640EA9C0003
:100A40005B084FEA3202B6EB020E75EB030E22BFD3
:100A5000B61A754640EADC0055EA060E18D04FEA91
:100A6000051545EA16754FEA06164FEAC30343EA31
:100A700052734FEAC2025FEA1C1CC0D111F4801FFE
:100A80000BD141EA00014FF000004FF0004CB6E7F7
:100A900011F4801F04BF01430020B4F1FD0C88BF96
:100AA000BCF5E06F3FF6AFAEB5EB030C04BFB6EBA1
:100AB000020C5FEA500C50F1000041EB045170BD94
:100AC0000EF0004E4EEA113114EB5C04C2BFD4EBC1
:100AD0000C0541EA045170BD41F480114FF0000E45
:100AE000013C90E645EA060E8DE60CEA135594EAC1
:100AF0000C0F08BF95EA0C0F3FF43BAF94EA0C0FC4
:100B00000AD150EA01347FF434AF95EA0C0F7FF438
:100B100025AF104619462CE795EA0C0F06D152EA8C
:100B200003353FF4FDAE1046194622E750EA410670
:100B300018BF52EA43067FF4C5AE50EA41047FF481
:100B40000DAF52EA43057FF4EBAE12E74FF0FF3CE6
:100B500006E000BF4FF0010C02E000BF4FF0010CB7
:100B60004DF804CD4FEA410C7FEA6C5C4FEA430C30
:100B700018BF7FEA6C5C1BD001B050EA410C0CBF7F
:100B800052EA430C91EA030F02BF90EA020F0020E1
:100B9000704710F1000F91EA030F58BF994208BF48
:100BA00090422CBFD8176FEAE37040F00100704705
:100BB0004FEA410C7FEA6C5C02D150EA013C07D15C
:100BC0004FEA430C7FEA6C5CD6D152EA033CD3D0A7
:100BD0005DF8040B704700BF8446104662468C46A1
:100BE0001946634600E000BF01B5FFF7B7FF0028D4
:100BF00048BF10F1000F01BD4DF808EDFFF7F4FFFD
:100C00000CBF012000205DF808FB00BF4DF808ED87
:100C1000FFF7EAFF34BF012000205DF808FB00BFAA
:100C20004DF808EDFFF7E0FF94BF012000205DF8CC
:100C300008FB00BF4DF808EDFFF7CEFF94BF012081
:100C400000205DF808FB00BF4DF808EDFFF7C4FF7A
:100C500034BF012000205DF808FB00BF4FEA410CC3
:100C60007FEA6C5C02D150EA013C0AD14FEA430CA6
:100C70007FEA6C5C02D152EA033C02D14FF00000E3
:100C800070474FF0010070474FEA410212F5001221
:100C900015D211D56FF47873B3EB625212D94FEAC3
:100CA000C12343F0004343EA505311F0004F23FAAD
:100CB00002F018BF404270474FF00000704750EA02
:100CC000013005D111F0004008BF6FF000407047BF
:100CD0004FF00000704700BF4FEA4102B2F1E0431D
:100CE00024BFB3F5001CDCF1FE5C0DD901F0004C13
:100CF0004FEAC0024CEA5070B2F1004F40EB830063
:100D000008BF20F00100704711F0804F21D113F18E
:100D10003872BCBF01F00040704741F480114FEAC7
:100D20005252C2F11802C2F1200C10FA0CF320FA50
:100D300002F018BF40F001004FEAC1234FEAD3236D
:100D400003FA0CFC40EA0C0023FA02F34FEA4303D7
:100D5000CCE77FEA625307D150EA01331EBF4FF060
:100D6000FE4040F44000704701F0004040F0FE407B
:100D700040F40000704700BF53B94AB9002908BFCA
:100D800000281CBF4FF0FF314FF0FF3000F06AB970
:100D9000ADF1080C6DE904CE00F006F8DDF804E0D2
:100DA000DDE9022304B070472DE9F047089D0C46A9
:100DB000002B4ED194468C458646B2FA82F262D917
:100DC0004AB1C2F12003914020FA03F30CFA02FC6D
:100DD000194300FA02FE4FEA1C471FFA8CF6B1FBDA
:100DE000F7F44FEA1E4307FB141143EA014304FBE7
:100DF00006F199420AD91CEB030304F1FF3080F09D
:100E00001281994240F20F81023C6344591A1FFA41
:100E10008EF3B1FBF7F007FB101143EA014300FB2F
:100E200006F69E420AD91CEB030300F1FF3180F065
:100E3000FC809E4240F2F980634402389B1B40EAEA
:100E4000044000211DB1D3400022C5E90032BDE8B5
:100E5000F0878B4205D90DB1C5E900010021084694
:100E6000F5E7B3FA83F1002946D1A34202D39042B9
:100E7000C0F0F080861A64EB03030120002DE6D059
:100E8000C5E90063E3E7002A40F09080A1EB0C0481
:100E90004FEA1C481FFA8CF70121B4FBF8F64FEA21
:100EA0001E4308FB164443EA044307FB06F098423E
:100EB00008D91CEB030306F1FF3402D2984200F27A
:100EC000CD8026461C1A1FFA8EF3B4FBF8F008FBFF
:100ED000104443EA044300FB07F79F4208D91CEB88
:100EE000030300F1FF3402D29F4200F2B08020469B
:100EF000DB1B40EA0640A5E7C1F120068B4022FA41
:100F000006F71F4320FA06FC04FA01F343EA0C0338
:100F1000F44000FA01F8380C4FEA1349B4FBF0FE34
:100F20001FFA87FC00FB1E4449EA04440EFB0CF93F
:100F3000A14502FA01F20AD93C190EF1FF3A80F0FC
:100F40008480A14540F28180AEF1020E3C44A4EBC6
:100F500009041FFA83F9B4FBF0F300FB134449EAD8
:100F6000044403FB0CFCA44507D93C1903F1FF30F2
:100F700067D2A44565D9023B3C4443EA0E40A0FB3E
:100F80000293A4EB0C049C42CE469C4651D34ED017
:100F900055B1B8EB0E0364EB0C0404FA06F6CB4033
:100FA0001E43CC40C5E90064002150E7C2F1200394
:100FB00020FA03F10CFA02FC24FA03F394400C43E8
:100FC0004FEA1C4800FA02FE1FFA8CF7B3FBF8F058
:100FD00008FB1031230C43EA014300FB07F199425F
:100FE00008D91CEB030300F1FF362CD299422AD911
:100FF000023863445B1AA4B2B3FBF8F108FB113367
:1010000044EA034401FB07F3A34208D91CEB0404A0
:1010100001F1FF3613D2A34211D902396444E41A14
:1010200041EA004139E70446F0E6084606E7C845CC
:10103000AED2B9EB020E63EB070C0138A8E73146DC
:10104000EDE7034699E73046D4E7D6467FE76344A9
:1010500002384DE70646234608460FE7023E634442
:1010600030E700BF704700BF80B400AF094BD3F832
:101070008830084A43F47003C2F88830054B1B6976
:10108000044A43F01003136100BFBD465DF8047BC2
:10109000704700BF00ED00E080B487B000AFF8609B
:1010A000B9607A60FB685B687A689A4201D800236D
:1010B00014E0FB685B68591CFA6851601B01BA6850
:1010C00013447B617B694FF0FF329A607B699A68B9
:1010D0007B695A607B690022DA607B6918461C379D
:1010E000BD465DF8047B704780B485B000AFF86002
:1010F0007A603B600B46FB72FB68FA7A1A70FB68F9
:101100007A685A60FB683A689A60FB680022DA6085
:1011100000BF1437BD465DF8047B704780B586B0CC
:1011200000AFF860B9607A603B60FB681B687B6168
:101130003FE0FB681B68BA6813441B787D2B45D0E1
:101140007D2B1CDC5D2B41D05D2B18DC3A2B16DC93
:10115000202B04DA0A2B10DC092B37DA0FE0203BB6
:10116000314A22FA03F303F00103002B14BF0123D9
:101170000023DBB2002B29D101E00D2B26D000BFCC
:10118000FB681B68BA6813441B781F2B06D9FB68E1
:101190001B68BA6813441B787E2B05D97A69FB68F3
:1011A0001A606FF001033AE0FB681B685A1CFB6889
:1011B0001A60FB681B687A689A4209D9FB681B6849
:1011C000BA6813441B78002BB3D101E000BF00E0E4
:1011D00000BF3B68002B06D1FB681B685A1EFB68EA
:1011E0001A6000231BE03A6A3968F868FFF754FF79
:1011F00038613B69002B05D17A69FB681A604FF0B2
:10120000FF330CE0FB681B687A6908213869FFF737
:101210006BFFFB681B685A1EFB681A6000231846A8
:101220001837BD4680BD00BF0110000480B588B0EE
:1012300000AFF860B9607A603B60FB681B68BB6117
:10124000FB681B685A1CFB681A60BAE0FB681B68E5
:10125000BA6813441B78FB75FB7D222B1DD13B68BC
:10126000002B01D10023BEE0BA6A3968F868FFF7A5
:1012700013FF38613B69002B05D1BA69FB681A601E
:101280004FF0FF33AFE0BB695A1CFB681B680421B9
:101290003869FFF729FF0023A5E0FB7D5C2B40F0B8
:1012A0008B80FB681B6801337A689A4240F2848025
:1012B000FB681B685A1CFB681A60FB681B68BA68ED
:1012C00013441B78752B70DC5C2B04DA222B72D054
:1012D0002F2B70D069E05C3B01229A40444B1340B5
:1012E000002B14BF01230023DBB2002B63D102F0DB
:1012F0000073002B14BF01230023DBB2002B54D05A
:10130000FB681B685A1CFB681A600023FB6137E00E
:10131000FB681B68BA6813441B782F2B06D9FB683F
:101320001B68BA6813441B78392B21D9FB681B68EA
:10133000BA6813441B78402B06D9FB681B68BA684F
:1013400013441B78462B13D9FB681B68BA681344F7
:101350001B78602B06D9FB681B68BA6813441B789E
:10136000662B05D9BA69FB681A606FF001033AE091
:10137000FB681B685A1CFB681A60FB690133FB6140
:10138000FB69032B0BDCFB681B687A689A4206D961
:10139000FB681B68BA6813441B78002BB8D1FB6844
:1013A0001B685A1EFB681A6006E0BA69FB681A607F
:1013B0006FF0010317E000BFFB681B685A1CFB6855
:1013C0001A60FB681B687A689A4207D9FB681B6839
:1013D000BA6813441B78002B7FF438AFBA69FB68F6
:1013E0001A606FF0020318462037BD4680BD00BF6B
:1013F0004104440180B58CB002AFF860B9607A60F6
:101400003B60FB685B683B6276E1FB681B68BA681F
:1014100013441B78FB77FB7F7D2B6CD07D2B00F377
:1014200036817B2B30D07B2B00F331815D2B62D05A
:101430005D2B00F32C815B2B26D05B2B00F32781E7
:101440003A2B00F0D6803A2B00F321812C2B00F0B0
:10145000D7802C2B00F31B81202B11DC092BC0F231
:101460001681093B914A22FA03F303F00103002B92
:1014700014BF01230023DBB2002B40F02D8106E1D5
:10148000222B00F0928002E13B6A01333B623B6811
:10149000002B00F023813A6B3968F868FFF7FCFDF8
:1014A000B861BB69002B02D14FF0FF3353E1FB68F9
:1014B0009B68B3F1FF3F0AD0FB689B681B013A6849
:1014C00013447B617B69DB685A1C7B69DA60FB7FB4
:1014D0007B2B01D1012200E00222BB691A70FB685C
:1014E0001B681A46BB695A60FB685B68013B1A4679
:1014F000FB689A60FBE03B68002B00F0F180FB7F0B
:101500007D2B01D1012300E00223BB77FB685B68E0
:10151000013B7B6224E07B6A1B013A681344BB6198
:10152000BB695B68B3F1FF3F17D0BB699B68B3F140
:10153000FF3F12D1BB691B78BA7F9A4202D06FF08D
:10154000010308E1FB684FF0FF329A60FB681B68FB
:1015500001331A46BB699A6005E07B6A013B7B62F6
:101560007B6A002BD7DA7B6AB3F1FF3F19D16FF0AA
:101570000103F0E07B6A1B013A681344BB61BB695D
:101580005B68B3F1FF3F09D0BB699B68B3F1FF3FD4
:1015900004D1FB687A6A9A6000BFA8E07B6A013BCD
:1015A0007B627B6A002BE5DAA1E03B6B00933B6832
:1015B0007A68B968F868FFF739FE38613B69002B33
:1015C00001DA3B69C7E03B6A01333B62FB689B6819
:1015D000B3F1FF3F00F086803B68002B00F0828073
:1015E000FB689B681B013A681344DA680132DA60D1
:1015F00078E0FB685B68013B1A46FB689A6076E01E
:101600003B68002B70D0FB689B68B3F1FF3F6BD049
:10161000FB689B681B013A6813441B78022B63D05C
:10162000FB689B681B013A6813441B78012B5BD055
:10163000FB685B68013B7B6225E07B6A1B013A68C3
:1016400013441B78022B06D07B6A1B013A681344B3
:101650001B78012B14D17B6A1B013A6813445B6829
:10166000B3F1FF3F0CD07B6A1B013A6813449B68BF
:10167000B3F1FF3F04D1FB687A6A9A6000BF33E0A0
:101680007B6A013B7B627B6A002BD6DA2CE03B6BEA
:1016900000933B687A68B968F868FFF73FFD3861E6
:1016A0003B69002B04DA3B6955E000BF1300800062
:1016B0003B6A01333B62FB689B68B3F1FF3F15D087
:1016C0003B68002B12D0FB689B681B013A681344EF
:1016D000DA680132DA6009E000BF08E000BF06E026
:1016E00000BF04E000BF02E000BF00E000BFFB68F5
:1016F0001B685A1CFB681A60FB681B687A689A4270
:1017000007D9FB681B68BA6813441B78002B7FF469
:101710007CAE3B68002B1DD0FB685B68013B7B62A5
:1017200015E07B6A1B013A6813445B68B3F1FF3F25
:101730000AD07B6A1B013A6813449B68B3F1FF3FF0
:1017400002D16FF0020306E07B6A013B7B627B6A99
:10175000002BE6DA3B6A18462837BD4680BD00BF3D
:1017600080B483B000AF78607B6800221A607B6829
:1017700000225A607B684FF0FF329A6000BF0C373E
:10178000BD465DF8047B704790B5ADF6041D02AF11
:1017900007F6F803A3F6F403186007F6B403184637
:1017A000FFF7DEFF07F6F803A3F6F4031868FEF769
:1017B000F7FD044607F1B40307F6F802A2F6F401B8
:1017C00007F6B4008022009222460968FFF712FE55
:1017D000C7F8EC08D7F8EC38002B05DAD7F8EC1886
:1017E000214807F0A9F91BE3D7F8EC38002B06DDF8
:1017F00007F6F803A3F644031B78012B03D01B481C
:1018000007F002FA0CE307F6F803A3F664030022DC
:101810001A60043300221A605A609A60DA601A6112
:101820005A619A6107F6F803A3F6840300221A604E
:10183000043300221A605A609A60DA601A615A61B1
:101840009A6107F6F803A3F6A40300221A60043392
:1018500000221A605A609A60DA601A615A619A61CD
:101860000023C7F8F438E3E0D8AE1008F4AE10084F
:10187000D7F8F438012B44D107F6F803A3F6440255
:10188000D7F8F4381B01134408331A6807F6F80335
:10189000A3F64401D7F8F4381B010B4404331B684A
:1018A000D31A01331C4607F6F803A3F64402D7F80F
:1018B000F4381B01134408331A6807F6F803A3F63B
:1018C0004401D7F8F4381B010B4404331B68D11AC8
:1018D00007F6F803A3F64402D7F8F4381B011344C3
:1018E00004331B681A4607F6F803A3F6F4031B68D3
:1018F000134407F1940000930B46C94A214607F0B0
:101900008BF9D7F8F438032B44D107F6F803A3F684
:101910004402D7F8F4381B01134408331A6807F659
:10192000F803A3F64401D7F8F4381B010B44043341
:101930001B68D31A01331C4607F6F803A3F64402CA
:10194000D7F8F4381B01134408331A6807F6F80374
:10195000A3F64401D7F8F4381B010B4404331B6889
:10196000D11A07F6F803A3F64402D7F8F4381B019E
:10197000134404331B681A4607F6F803A3F6F4036E
:101980001B68134407F1740000930B46A44A2146D8
:1019900007F042F9D7F8F438042B44D107F6F803DE
:1019A000A3F64402D7F8F4381B01134408331A682D
:1019B00007F6F803A3F64401D7F8F4381B010B44EB
:1019C00004331B68D31A01331C4607F6F803A3F649
:1019D0004402D7F8F4381B01134408331A6807F699
:1019E000F803A3F64401D7F8F4381B010B44043381
:1019F0001B68D11A07F6F803A3F64402D7F8F438A7
:101A00001B01134404331B681A4607F6F803A3F6B8
:101A1000F4031B68134407F1540000930B46804AFB
:101A2000214607F0F9F8D7F8F4380133C7F8F4384D
:101A3000D7F8F428D7F8EC389A42FFF619AF07F137
:101A4000940378491846FEF74BFC0346002B40F000
:101A5000B280754807F0D8F807F15403184606F02D
:101A60008BFA0346DAB207F6F803A3F6A5031A7059
:101A700007F174036D491846FEF732FC0346002B4C
:101A800015D10023C7F8E83807F15303012200926B
:101A900000222621664800F037FF0346C7F8E838E1
:101AA000D7F8E838002B02D0624807F0ADF807F10C
:101AB000740361491846FEF713FC0346002B0FD14F
:101AC00007F6F803A3F6A5031A785C4B1A7007F122
:101AD00053030122009201222621554800F014FFF1
:101AE00007F1740356491846FEF7FAFB0346002B2C
:101AF00061D107F6F803A3F6A60300221A7007F6D1
:101B0000F803A3F6A70300221A700023C7F8E438ED
:101B100007F152030122009204222621444800F0DA
:101B2000B9FF0346C7F8E438D7F8E438002B02D0F1
:101B3000404807F069F807F151030122009205229D
:101B400026213B4800F0A6FF0346C7F8E438D7F843
:101B5000E438002B02D0374807F056F807F6F803B0
:101B6000A3F6A6031B781B021AB207F6F803A3F626
:101B7000A7031B781BB213431BB2A7F8E238B7F8D0
:101B8000E23819462F4806F0D7FFB7F8E23807F1D8
:101B90000C002D4A402107F03FF82C4B1C6807F140
:101BA0000C031846FEF7FCFB024607F10C0319462E
:101BB000204600F0D0FB07F1940325491846FEF7B4
:101BC0008FFB0346002B40F02B81224807F01CF8C6
:101BD00007F15403184606F0CFF9034687F8E138B9
:101BE000002387F8F33807F174031B491846FEF702
:101BF00077FB0346002B40F013810023C7F8DC3845
:101C000097F8E138184600F055F9C7F8DC08D7F81E
:101C1000DC38002B22D0012387F8F33821E000BF05
:101C200008AF100810AF100814AF100828AF100844
:101C3000D804001030AF10083CAF10083C02001070
:101C400040AF100848AF100858AF10080800001047
:101C50007CAF100880AF100898AF1008002387F8F9
:101C6000F33897F8F338012B3FD16F4B1B7807EE11
:101C7000903AB8EE677ADFED6D6AC7EE267A07F61E
:101C8000C803C3ED007A00F0DFF807F6C40383ED64
:101C9000000A07F6C80393ED007A07F6C403D3EDF4
:101CA000007A77EE277A07F50C63C3ED007A07F523
:101CB0000C631868FEF7E0FC02460B4607F10C00C7
:101CC000CDE900235A4A402106F0A6FF594B1C6873
:101CD00007F10C031846FEF763FB024607F10C03FD
:101CE0001946204600F037FB9AE007F6F803A3F602
:101CF000AA0300221A8007F14E03184601F028FAC1
:101D000007F6F803A3F6AA031B88002B06D007F6F4
:101D1000F803A3F6AA031B88FF2B03D1012387F83E
:101D2000F33802E0002387F8F33897F8F338012BF3
:101D30003FD13D4B1B7807EE903AB8EE677ADFED66
:101D40003B6AC7EE267A07F6D403C3ED007A00F0AB
:101D50007BF807F50D6383ED000A07F6D40393EDD6
:101D6000007A07F50D63D3ED007A77EE277A07F650
:101D7000CC03C3ED007A07F6CC031868FEF77CFCB1
:101D800002460B4607F10C00CDE90023284A40210A
:101D900006F042FF274B1C6807F10C031846FEF7BC
:101DA000FFFA024607F10C031946204600F0D3FA69
:101DB00036E007F6F803A3F6AA031B8819461E4867
:101DC00006F0BAFE07F6F803A3F6AA031B8807EE8F
:101DD000903AB8EE677ADFED196AC7EE267A07F611
:101DE000D803C3ED007A07F6D8031868FEF744FC61
:101DF00002460B4607F10C00CDE90023104A4021B2
:101E000006F00AFF0B4B1C6807F10C031846FEF79F
:101E1000C7FA024607F10C031946204600F09BFA68
:101E200007F6FC07BD4690BD3C0200100000AA4228
:101E3000A0AF100808000010CCAF100800AAAA46F6
:101E4000E0AF10080000000080B500AF06F098F881
:101E500007EE900AF8EEE77A9FED157AC7EE876AEB
:101E600016EE900AFEF708FC0DA3D3E90023FEF757
:101E70005BFC02460B46104619460BA3D3E9002330
:101E8000FEF79AFA02460B4610461946FEF724FF63
:101E9000034607EE903AB0EE670A80BDAFF30080CC
:101EA0009A9999999999D93F9A9999999999C93FE4
:101EB0000000004F80B586B000AF78607B68002BD3
:101EC00002DB7B682F2B06DD79684F4806F034FE75
:101ED0004FF0FF3394E07B68002B00DA0F331B11C7
:101EE0007B617B685A4203F00F0302F00F0258BF78
:101EF00053423B610023FB607B699B10DBB203F024
:101F00000103DBB21946062000F0ECFF0346FB603C
:101F1000FB68002B02D04FF0FF3371E07B695B1050
:101F2000DBB203F00103DBB21946052000F0DAFF53
:101F30000346FB60FB68002B02D04FF0FF335FE0ED
:101F40007B69DBB203F00103DBB21946042000F029
:101F5000C9FF0346FB60FB68002B02D04FF0FF3344
:101F60004EE03B69DBB203F00103DBB2194600200F
:101F700000F0B8FF0346FB60FB68002B02D04FF077
:101F8000FF333DE03B695B10DBB203F00103DBB2E2
:101F90001946012000F0A6FF0346FB60FB68002BFA
:101FA00002D04FF0FF332BE03B699B10DBB203F014
:101FB0000103DBB21946022000F094FF0346FB60E8
:101FC000FB68002B02D04FF0FF3319E03B69DB10B8
:101FD000DBB203F00103DBB21946032000F082FFFD
:101FE0000346FB60FB68002B02D04FF0FF3307E095
:101FF0007B6901333A691946044806F09DFD0023C8
:1020000018461837BD4680BD0CB0100828B010081F
:1020100080B500AF0D4B00221A600D4B00221A70E4
:102020000C4B00221A70F02200210B4806F000FF32
:10203000F0220021094806F0FBFE08220021084892
:1020400006F0F6FE00F058FB00BF80BD280400102B
:10205000300300102404001040020010340300106C
:102060002C04001080B483B000AF03463960FB71CC
:10207000FB79012B04D8FB7904493A6841F8232005
:1020800000BF0C37BD465DF8047B70472C04001080
:1020900080B483B000AF0346FB71FB79064A52F867
:1020A0002330002B0CBF01230023DBB218460C3772
:1020B000BD465DF8047B70472C04001080B485B0E9
:1020C00000AF786039600123FB737B68002B29D057
:1020D0003B68002B26D0174B1B78122B22D8154BB0
:1020E0001B781A4613465B0013449B00124A1344A4
:1020F000BB60BB683A689A60BB6800225A803B6844
:10210000DA68BB685A60BB6801221A70094B1A78FA
:102110007B681A70074B1B780133DAB2054B1A70D3
:102120000023FB73FB7B18461437BD465DF8047B28
:10213000704700BF300300104002001080B485B02B
:1021400000AF424B1B680133404A13600023FB730E
:1021500025E0FA7B13465B0013449B003C4A134482
:102160007B607B689B681B78012B15D17B681B7893
:10217000012B11D17B685B685A1C7B685A607B68B5
:102180005A687B689B685B689A4205D37B6800222B
:102190005A607B6801225A80FB7B0133FB732D4B15
:1021A0001B78FA7B9A42D4D30023BB732BE0BA7B13
:1021B00013465B0013449B00274A1344BB60BB6873
:1021C0001B78012B1CD1BB685B685A1CBB685A602A
:1021D000BB685A68BB689B685B689A4210D3BB684F
:1021E00001225A80BB6800225A60BB689B681B783A
:1021F000022B0CBF01230023DBB21A46BB681A7006
:10220000BB7B0133BB73154B1B78BA7B9A42CED391
:102210000023BB7310E0BB7B114A52F82330002B24
:1022200007D0BB7B0E4A52F82320013A0C4941F8F3
:102230002320BB7B0133BB73BB7B012BEBD900BFDE
:1022400000BF1437BD465DF8047B704728040010BA
:10225000400200103003001034030010240400106A
:102260002C04001080B500AF00F036FA00BF80BD2E
:1022700080B584B000AF0023FB731EE0FA7B1346E9
:102280005B0013449B00234A13447B607B685B889C
:10229000012B0FD17B681B78012B0BD17B680022AF
:1022A0005A807B689B689B68002B03D07B689B6887
:1022B0009B689847FB7B0133FB73174B1B78FA7BBA
:1022C0009A42DBD30023BB731AE0BA7B13465B0050
:1022D00013449B00114A1344BB60BB685B88012B0D
:1022E0000BD1BB6800225A80BB689B689B68002B9F
:1022F00003D0BB689B689B689847BB7B0133BB736B
:10230000074B1B78BA7B9A42DFD300BF00BF103760
:10231000BD4680BD400200103003001034030010A1
:102320002404001080B483B000AF78607B68002B79
:1023300009D07B681B68002B05D07B685B68002B8D
:1023400001D0012300E00023DBB218460C37BD4664
:102350005DF8047B704780B588B000AFF860B96065
:102360007A60BB68FB61FB68002B0DD0FB681B68C3
:10237000002B09D0FB685B68002B05D0BB68002BE5
:1023800002D07B68002B01D1002359E0F86800F0EF
:102390005BF8B8617A68BB69934228BF13467B60DB
:1023A0007B68002B01D100234AE0FB685A68FB6878
:1023B000DB68D31A7A689A4205D9FB685A68FB68C9
:1023C000DB68D31A00E07B687B61FB681A68FB68F6
:1023D000DB6813447A69F969184606F0BCFDFB68AE
:1023E000DA687B691A44FB68DA607A687B69D31A19
:1023F0007B607B68002B0BD0FB681868FA697B69EF
:1024000013447A68194606F0A6FDFB687A68DA601C
:10241000FB68DA68FB685B689A4202D3FB680022BB
:10242000DA60FB681B69002B07D0FB681B697969C0
:102430007A680A440121F86898477A697B681344EE
:1024400018462037BD4680BD80B487B000AF7860A5
:102450007B68002B07D07B681B68002B03D07B6850
:102460005B68002B01D100231FE07B68DB683B61C8
:102470007B689B68FB603A69FB689A4203D17B6882
:102480005B687B610FE0FA683B699A4204D9FA689D
:102490003B69D31A7B6106E07B685A68F9683B693F
:1024A000CB1A13447B617B69013B18461C37BD4640
:1024B0005DF8047B704780B487B000AF78607B68BC
:1024C000002B07D07B681B68002B03D07B685B6800
:1024D000002B01D100231DE07B68DB683B617B683A
:1024E0009B68FB603A69FB689A4202D100237B61DA
:1024F0000FE03A69FB689A4204D93A69FB68D31A3B
:102500007B6106E07B685A683969FB68CB1A134423
:102510007B617B6918461C37BD465DF8047B7047BC
:1025200080B483B000AF78607B68002B07D07B68F5
:102530001B68002B03D07B685B68002B01D1002354
:1025400004E07B681A687B689B68134418460C3764
:10255000BD465DF8047B704780B487B000AF7860FB
:102560007B68002B07D07B681B68002B03D07B683F
:102570005B68002B01D100231BE07B68DB683B61BB
:102580007B689B68FB603A69FB689A4204D93A69A8
:10259000FB68D31A7B610BE0FA683B699A4205D964
:1025A0007B685A68FB68D31A7B6101E000237B617A
:1025B0007B6918461C37BD465DF8047B704780B5C3
:1025C00084B000AF786039607B68002B0AD07B68EC
:1025D0001B68002B06D07B685B68002B02D03B6831
:1025E000002B01D1002327E07868FFF764FFF86033
:1025F0003A68FB68934228BF13463B607B689A6841
:102600003B681A447B689A607B689A687B685B6861
:102610009A4206D37B685B687A689268D21A7B68B4
:102620009A607B681B69002B05D07B681B693A6840
:102630000021786898473B6818461037BD4680BD32
:1026400080B483B000AF03463960FB80B7F9063031
:10265000002B0ADB3B68DAB20C49B7F906301201ED
:10266000D2B20B4483F800230AE03B68DAB208498F
:10267000FB8803F00F03043B1201D2B20B441A761D
:1026800000BF0C37BD465DF8047B704700E100E0F9
:1026900000ED00E080B582B000AF78607B68013B60
:1026A000B3F1807F01D301230FE00A4A7B68013B2D
:1026B00053600F214FF0FF30FFF7C2FF054B0022A0
:1026C0009A60044B07221A60002318460837BD465B
:1026D00080BD00BF10E000E080B400AF054B1B6878
:1026E000044A43F00103136000BFBD465DF8047B5C
:1026F000704700BF10E000E080B500AF054B1B68DD
:10270000054AA2FB03239B091846FFF7C3FF00BF3E
:1027100080BD00BF00000010D34D621080B483B0B4
:1027200000AF78607B689B6903F00103012B01D146
:10273000012300E0002318460C37BD465DF8047BFA
:10274000704780B483B000AF78607B689B6903F00A
:102750000203022B01D1012300E0002318460C37AD
:10276000BD465DF8047B704780B483B000AF7860ED
:102770007B689B6903F00403042B01D1012300E073
:10278000002318460C37BD465DF8047B704780B4C3
:1027900083B000AF78607B689B6903F01003102B57
:1027A00001D1012300E0002318460C37BD465DF837
:1027B000047B704780B483B000AF78607B689B690E
:1027C00003F02003202B01D1012300E00023184651
:1027D0000C37BD465DF8047B704780B483B000AF12
:1027E00078607B689B6903F04003402B01D1012393
:1027F00000E0002318460C37BD465DF8047B7047A7
:1028000080B483B000AF78607B689B6903F40043B9
:10281000B3F5004F01D1012300E0002318460C3727
:10282000BD465DF8047B704780B483B000AF78602C
:102830007B68DB6943F020027B68DA6100BF0C37FC
:10284000BD465DF8047B704780B483B000AF78600C
:1028500039607B685B6823F400423B681A437B68FD
:102860005A6000BF0C37BD465DF8047B704700001E
:1028700080B487B000AFF860B9607A603B60BB6835
:10288000C3F309027B6803F400631A433B681B042B
:1028900003F47F031A433B6A1A437B6A134323F012
:1028A00000437B61FB685A687B6A5B0D03F48061BF
:1028B000064B0B43DB431A407B691A43FB685A60A3
:1028C00000BF1C37BD465DF8047B7047FF7BFF03EC
:1028D00080B483B000AF78607B685B6ADBB2184677
:1028E0000C37BD465DF8047B704780B483B000AF01
:1028F00078600B46FB70FA787B689A6200BF0C37F1
:10290000BD465DF8047B704780B588B002AFF860C3
:102910007B600B46FB721346BB7201F0EBFE386125
:102920000AE001F0E7FE02463B69D31A142B03D9F3
:1029300000F076FF0223A7E0FB681B681846FFF74C
:102940005FFF0346002BECD1FB681868FB7A590047
:1029500097F8203001331A464D4B01934FF0007326
:10296000009313460022FFF783FF01F0C3FE386196
:1029700014E0FB681B681846FFF709FF0346002BAD
:1029800001D0012380E001F0B5FE02463B69D31A75
:10299000142B03D900F044FF032375E0FB681B6888
:1029A0001846FFF7CEFE0346002BE2D0FB681B68FB
:1029B000BA7A11461846FFF798FF01F09BFE38617E
:1029C00014E0FB681B681846FFF7E1FE0346002B86
:1029D00001D0012358E001F08DFE02463B69D31A75
:1029E000142B03D900F01CFF03234DE0FB681B6888
:1029F0001846FFF7A6FE0346002BE2D00023FB7526
:102A000028E0FB681B681846FFF7C1FE0346002B51
:102A100001D0012338E001F06DFE02463B69D31A74
:102A2000142B03D900F0FCFE03232DE0FB681B6888
:102A30001846FFF786FE0346002BE2D0FB681868B5
:102A4000FB7D7A6813441B781946FFF74EFFFB7D28
:102A50000133FB75FA7D97F820309A42E6D30AE0FD
:102A600001F048FE02463B69D31A142B03D900F04B
:102A7000D7FE032308E0FB681B681846FFF74EFEED
:102A80000346002BECD0002318461837BD4680BD06
:102A90000020008090B589B002AFF8607B600B46E3
:102AA000FB721346BB7201F025FE38610AE001F0AB
:102AB00021FE02463B69D31A142B03D900F0B0FE65
:102AC0000223B3E0FB681B681846FFF799FE034634
:102AD000002BECD1FB681868FB7A5900554B019329
:102AE0000023009301230022FFF7C2FE01F002FE43
:102AF000386114E0FB681B681846FFF748FE034680
:102B0000002B01D0012391E001F0F4FD02463B6966
:102B1000D31A142B03D900F083FE032386E0FB684D
:102B20001B681846FFF70DFE0346002BE2D0FB683A
:102B30001B68BA7A11461846FFF7D7FE01F0DAFD96
:102B400038610AE001F0D6FD02463B69D31A142B26
:102B500003D900F065FE032368E0FB681B68184694
:102B6000FFF73BFE0346002BECD0FB681868FB7AAE
:102B7000590097F82830304A01924FF000720092C5
:102B80000022FFF775FE00237B612DE001F0B2FD0E
:102B9000386114E0FB681B681846FFF7F8FD034630
:102BA000002B01D0012341E001F0A4FD02463B6966
:102BB000D31A142B03D900F033FE032336E0FB684D
:102BC0001B681846FFF7D0FD0346002BE2D0FB68D8
:102BD00019687B697A68D4180846FFF779FE0346BE
:102BE00023707B6901337B6197F828307A699A42B8
:102BF000CCDB01F07FFD38610AE001F07BFD02468D
:102C00003B69D31A142B03D900F00AFE03230DE00D
:102C1000FB681B681846FFF7CDFD0346002BECD080
:102C2000FB681B681846FFF7FFFD002318461C379A
:102C3000BD4690BD002000800024008090B589B082
:102C400002AFF8607B600B46FB721346BB7201F06B
:102C500051FD38610AE001F04DFD02463B69D31A8F
:102C6000142B03D900F0DCFD0223B1E0FB681B68E4
:102C70001846FFF7C5FD0346002BECD1FB6818682A
:102C8000FB7A5900544B0193002300930123002247
:102C9000FFF7EEFD01F02EFD386114E0FB681B68C4
:102CA0001846FFF774FD0346002B01D001238FE087
:102CB00001F020FD02463B69D31A142B03D900F022
:102CC000AFFD032384E0FB681B681846FFF739FD5E
:102CD0000346002BE2D0FB681B68BA7A11461846FF
:102CE000FFF703FE01F006FD386114E0FB681B6886
:102CF0001846FFF74CFD0346002B01D0012367E087
:102D000001F0F8FC02463B69D31A142B03D900F0FA
:102D100087FD03235CE0FB681B681846FFF7FEFC99
:102D20000346002BE2D0FB681B6800211846FFF722
:102D30008BFDFB681868FB7A5900FB7A5B0043F057
:102D400001031C4697F82830244A01924FF0007284
:102D500000922246FFF78CFDFB681B680021184695
:102D6000FFF772FD01F0C6FC386100237B6129E0AA
:102D7000FB681B681846FFF70AFD0346002B01D0CD
:102D8000012325E001F0B6FC02463B69D31A142B5F
:102D900003D900F045FD03231AE0FB681B681846C1
:102DA000FFF7E2FC0346002BE2D0FB6819687B6961
:102DB0007A68D4180846FFF78BFD034623707B69B9
:102DC00001337B6197F828307A699A42E5DB00236A
:102DD00018461C37BD4690BD0020008000240080AE
:102DE00080B483B000AF0346FB710B46BB71134642
:102DF0007B71FB79072B01D8BB7900E07B79184602
:102E00000C37BD465DF8047B704780B483B000AFDB
:102E10000346FB71FB7903F00703DBB218460C375E
:102E2000BD465DF8047B704780B586B002AF0346AF
:102E30003960FB71FA79012300933B68232105482F
:102E4000FFF7FCFE0346FB73FB7B18461037BD46BD
:102E500080BD00BFD804001080B586B002AF034625
:102E60000A46FB711346BB71BB1DFA790121009123
:102E700023210548FFF748FD0346FB73FB7B1846FB
:102E80001037BD4680BD00BFD804001080B584B0A7
:102E900000AF03463960FB71FB791846FFF7B5FFB9
:102EA0000346FB73FB79132212211846FFF798FFA4
:102EB0000346BB73BB7B39681846FFF7B5FF034673
:102EC0007B733B681B781A46FB7B42FA03F3DBB249
:102ED00003F00103DAB23B681A707B7B18461037A7
:102EE000BD4680BD80B584B000AF03460A46FB7185
:102EF0001346BB71FB791846FFF787FF0346FB7348
:102F0000FB79152214211846FFF76AFF0346BB73AD
:102F100007F10C02BB7B11461846FFF785FF0346FD
:102F20007B737B7B002B01D07B7B26E0BB79002B66
:102F300009D0FB7B012202FA03F3DAB23B7B134395
:102F4000DBB23B730AE0FB7B012202FA03F3DBB244
:102F5000DB43DAB23B7B1340DBB23B73FB791322DA
:102F600012211846FFF73CFF0346BB733A7BBB7B3D
:102F700011461846FFF770FF034618461037BD4646
:102F800080BD80B483B000AF78607B685B6903F478
:102F90008053B3F5805F01D1012300E00023184680
:102FA0000C37BD465DF8047B704780B483B000AF3A
:102FB00078607B685B6903F40043B3F5004F01D18F
:102FC000012300E0002318460C37BD465DF8047B62
:102FD000704780B483B000AF78607B6830331B7873
:102FE000DBB218460C37BD465DF8047B704780B4F1
:102FF00083B000AF78600B46FB707B682033FA78B3
:103000001A7000BF0C37BD465DF8047B70470000A6
:1030100080B584B000AF78600B46FB701B4BFB6043
:10302000FB7819467868FFF7E2FF00BF7868FFF782
:10303000A8FF0346002B04D0FB685A1EFA60002B41
:10304000F4D1FB68002B04D1114805F0DDFDFE230F
:1030500017E000BF7868FFF7A8FF0346002B04D0F5
:10306000FB685A1EFA60002BF4D1FB68002B04D1D8
:10307000084805F0C9FDFF2303E07868FFF7A9FFC2
:10308000034618461037BD4680BD00BF20A107008B
:1030900044B0100868B0100880B584B000AF786004
:1030A0000B46FB70104BFB60FB7819467868FFF706
:1030B0009EFF00BF7868FFF764FF0346002B04D033
:1030C000FB685A1EFA60002BF4D1FB68002B02D17A
:1030D0004FF0FF3303E07868FFF77BFF00231846CB
:1030E0001037BD4680BD00BF20A1070080B483B06B
:1030F00000AF786039607B683A689A6100BF0C372E
:10310000BD465DF8047B704780B483B000AF786043
:1031100039603B681A047B689A6100BF0C37BD4672
:103120005DF8047B7047000080B500AF08210248BD
:10313000FFF7EAFF00BF80BD0010025880B500AF66
:1031400008210248FFF7D2FF00BF80BD00100258DF
:1031500080B586B000AF7860D0233B73FFF7E4FF03
:1031600000237B610BE007F10C027B6913441B78A1
:1031700019463348FFF790FF7B6901337B617B6918
:10318000002BF0D0FFF7DAFF00210A20FFF7AAFE9C
:1031900007F10B0319460920FFF778FEFB7A194661
:1031A000284805F0C9FC00BF00BF00BF01210A206C
:1031B000FFF798FE07F10B0319460920FFF766FE9B
:1031C000FB7A1946204805F0B7FC00BF00BF00BFDE
:1031D00000233B7200237B72FFF7A6FF00233B61B5
:1031E00013E007F108023B6913441B7819461448A1
:1031F000FFF70EFF0346194607F108023B69134427
:103200000A461A703B6901333B613B69012BE8D9DF
:10321000FFF794FF3B7A1A467B681A807B681B880D
:103220001B029AB27B681A807B681B887A7A1343E8
:103230009AB27B681A80002318461837BD4680BDB5
:1032400000140058A8B01008BCB0100880B400AF3B
:10325000044BDB681B0A03F007031846BD465DF804
:10326000047B704700ED00E080B483B000AF0346FC
:10327000FB80B7F90630002B0BDBFB8803F01F0245
:103280000749B7F906305B09012000FA02F241F85C
:10329000232000BF0C37BD465DF8047B704700BF9C
:1032A00000E100E080B483B000AF03463960FB80EA
:1032B000B7F90630002B0ADB3B68DAB20C49B7F9E4
:1032C00006301201D2B20B4483F800230AE03B68B7
:1032D000DAB20849FB8803F00F03043B1201D2B2B3
:1032E0000B441A7600BF0C37BD465DF8047B70476F
:1032F00000E100E000ED00E080B489B000AFF860CC
:10330000B9607A60FB6803F00703FB61FB69C3F1F6
:103310000703042B28BF0423BB61FB690433062B7E
:1033200002D9FB69033B00E000237B614FF0FF32D1
:10333000BB6902FA03F3DA43BB681A407B699A401F
:103340004FF0FF317B6901FA03F3D9437B680B40EF
:10335000134318462437BD465DF8047B704780B49C
:1033600083B000AF78607B681B6843F001027B6824
:103370001A6000BF0C37BD465DF8047B704780B40F
:1033800083B000AF78607B681B6823F001027B6824
:103390001A6000BF0C37BD465DF8047B704780B4EF
:1033A00083B000AF78607B681B6823F400327B68D1
:1033B0001A6000BF0C37BD465DF8047B704780B4CF
:1033C00083B000AF78607B681B6823F400227B68C1
:1033D0001A6000BF0C37BD465DF8047B704780B4AF
:1033E00085B000AFF860B9607A60FB68DB6823F4F1
:1033F000FF6323F00603B9687A680A431A43FB683F
:10340000DA6000BF1437BD465DF8047B704780B4B6
:1034100083B000AF78607B68DB6823F400427B6890
:10342000DA6000BF0C37BD465DF8047B704780B49E
:1034300083B000AF78607B685B6843F000727B68A4
:103440005A6000BF0C37BD465DF8047B7047000032
:1034500080B485B000AF78607B68DAB2104B13445B
:10346000FB60FB681A687B68190E7B681B0A03F017
:103470001F0301FA03F3DB431A407B681B0CD9B22C
:103480007B681B0A03F01F0301FA03F31A43FB686E
:103490001A6000BF1437BD465DF8047B704700BF5B
:1034A0004C44025880B582B000AF78607868FFF76E
:1034B000CFFF00BF0837BD4680BD80B582B000AFEA
:1034C00078607868FFF7C4FF00BF0837BD4680BD4D
:1034D00080B582B000AF78607868FFF7B9FF00BFB1
:1034E0000837BD4680BD000080B485B000AF78606D
:1034F0000A4BD3F8E02009497B681343C1F8E03058
:10350000064BD3F8E0207B681340FB60FB6800BFEC
:103510001437BD465DF8047B704700BF0044025875
:1035200080B485B000AF78600A4BD3F8E820094931
:103530007B681343C1F8E830064BD3F8E8207B687A
:103540001340FB60FB6800BF1437BD465DF8047B89
:10355000704700BF0044025880B485B000AF786067
:103560000A4BD3F8F42009497B681343C1F8F430BF
:10357000064BD3F8F4207B681340FB60FB6800BF68
:103580001437BD465DF8047B704700BF0044025805
:1035900080B483B000AF7860084A7B6843F00103D1
:1035A0005360BFF34F8F00BFBFF36F8F00BF00BFEB
:1035B0000C37BD465DF8047B704700BF90ED00E01E
:1035C00080B400AFBFF35F8F00BF044B00225A608E
:1035D00000BFBD465DF8047B704700BF90ED00E082
:1035E00080B483B000AF78607B681B6843F0010251
:1035F0007B681A6000BF0C37BD465DF8047B7047DE
:1036000080B483B000AF78607B681B6843F40072BD
:103610007B681A6000BF0C37BD465DF8047B7047BD
:1036200080B483B000AF786039607B68DB6823F4D6
:1036300060123B681A437B68DA6000BF0C37BD46F6
:103640005DF8047B704780B483B000AF7860396068
:103650007B689B6823F4F0723B681A437B689A602E
:1036600000BF0C37BD465DF8047B704780B483B063
:1036700000AF78607B68DB6843F080427B68DA608B
:1036800000BF0C37BD465DF8047B704780B483B043
:1036900000AF78607B681B6843F001027B681A60AA
:1036A00000BF0C37BD465DF8047B704780B483B023
:1036B00000AF78607B681B6823F000527B681A605B
:1036C00000BF0C37BD465DF8047B704780B489B0FD
:1036D00000AF786039607B680833FB60FB6853E8B3
:1036E000003FBB60BB6823F060423B685B0713434D
:1036F000FB617B680833FA69BA617B617969BA69F1
:1037000041E800233B613B69002BE4D100BF00BFCF
:103710002437BD465DF8047B704780B489B000AFA4
:10372000786039607B680833FB60FB6853E8003FD2
:10373000BB60BB6823F060623B685B061343FB61C0
:103740007B680833FA69BA617B617969BA6941E8D3
:1037500000233B613B69002BE4D100BF00BF24374D
:10376000BD465DF8047B704780B483B000AF7860DD
:103770007B685B6823F490427B685A607B689B6837
:1037800023F02A027B689A6000BF0C37BD465DF8C3
:10379000047B704780B483B000AF78607B68DB69DE
:1037A00003F40013B3F5001F01D1012300E000234F
:1037B00018460C37BD465DF8047B704780B483B073
:1037C00000AF78607B68DB6903F48003B3F5800F9A
:1037D00001D1012300E0002318460C37BD465DF8F7
:1037E000047B704780B483B000AF786039607B6839
:1037F0003A689A6100BF0C37BD465DF8047B70479C
:1038000080B483B000AF786039603B681A047B688D
:103810009A6100BF0C37BD465DF8047B704700001D
:1038200080B500AF0348FFF7AAFD00F045F900BFDF
:1038300080BD00BF001C005880B582B000AF00F012
:1038400073FB564BD3F8E030544A43F00073C2F890
:10385000E030524BD3F8E03003F000733B603B683C
:10386000012001F01FFA01F0A9FA01220221002033
:1038700001F02AFA4A4B1B681B0903F00F03072BC0
:1038800008D1484BD3F80431464A43F00103C2F84B
:10389000043107E0434BD3F81431424A43F00103AB
:1038A000C2F8143100F07EFE00F09CFA00F0CEF970
:1038B00000F04CFA00F000F900F09AF800F060F91E
:1038C000394B3A4A1A60384B01229A72364B102211
:1038D000DA72374B374A1A60354B01229A72344BF1
:1038E0001022DA7240213448FFF77CFF80213348F0
:1038F000FFF778FF4FF480413148FFF773FF402115
:103900003048FFF76FFFFEF783FB00F00FFE00F07B
:1039100057FD00F06FFDFEF7A5FC2B4805F074F98C
:103920004FF47A7000F0F2FE05E0284805F004F943
:10393000322000F0EBFE264B1B681846FEF7F2FC27
:103940000346002BF1D005E0224805F0F5F83220BF
:1039500000F0DCFE204B1B681846FEF7E3FC034634
:10396000002BF1D01D4805F04FF91B4B1B681222AC
:103970001B491846FEF7EFFC00237B607B68002B99
:1039800003D1184805F040F902E0174805F03CF96A
:10399000164805F039F9FEF76BFCFCE700440258C5
:1039A00000ED00E000640258C8040010005400401C
:1039B000D8040010001C00580014025800080258D7
:1039C000000C025800000258D0B01008D8B01008FF
:1039D0000C000010F0B010080800001008B110082A
:1039E00014B1100828B1100838B110084CB11008F3
:1039F00080B58EB000AF07F11C0300221A605A6038
:103A00009A60DA601A615A619A613B1D00221A605D
:103A10005A609A60DA601A615A612348FFF74DFDD7
:103A20000220FFF761FDC0237B600223BB600223FD
:103A3000FB6001233B6100237B610423BB613B1DD1
:103A400019461A4803F0A0F84FF40010FFF768FD7C
:103A50001748FFF7ECFC002200211548FFF7BFFCD8
:103A60001348FFF7D4FC1248FFF7A9FC1048FFF7F2
:103A700096FC0023FB610F4B3B6200237B6200231B
:103A8000BB620023FB6200233B6300237B6307F1DF
:103A90001C031946064803F088F90548FFF75FFC48
:103AA00000BF3837BD4680BD080C00030004025833
:103AB000005400403A2EE04080B58EB000AF07F1D0
:103AC0001C0300221A605A609A60DA601A615A6117
:103AD0009A613B1D00221A605A609A60DA601A618E
:103AE0005A612348FFF7E9FC2020FFF7FDFC4FF463
:103AF00040437B600223BB600223FB6001233B61E8
:103B000000237B610423BB613B1D1946194803F068
:103B10003BF88020FFF720FD1748FFF788FC0022C4
:103B200000211548FFF75BFC1348FFF770FC1248B3
:103B3000FFF745FC1048FFF732FC0023FB610F4BF9
:103B40003B6200237B620023BB620023FB620023F5
:103B50003B6300237B6307F11C031946064803F00F
:103B600024F90548FFF7FBFB00BF3837BD4680BD91
:103B70000C08000300140258001C0058372EE340C4
:103B800080B590B000AF07F1180328220021184635
:103B900005F04EF93B4600221A605A609A60DA60DE
:103BA0001A615A612648FFF793FC2020FFF7D4FCE6
:103BB0004020FFF799FC4FF4E0433B6002237B6019
:103BC0000323BB600023FB6000233B6105237B6173
:103BD0003B4619461B4802F0D7FF0023BB614FF458
:103BE0008003FB6107233B6200237B624FF08073FD
:103BF000BB624FF08063FB624FF080433B63002366
:103C00007B630023BB630023FB6307F118031946A2
:103C10000D4803F0EBFF00210B48FFF701FD0021E9
:103C20000948FFF710FD0848FFF720FD0648FFF799
:103C3000D7FC0548FFF7E4FC00BF4037BD4680BD18
:103C40000C1C0007001802580014005880B58EB0F4
:103C500000AF07F1180320220021184605F0E8F80C
:103C60003B4600221A605A609A60DA601A615A6113
:103C70003248FFF717FC4FF08040FFF751FC10204F
:103C8000FFF732FC4FF4C0733B6002237B600023DC
:103C9000BB600023FB6000233B6107237B613B4645
:103CA0001946274802F070FFFFF7D0FA03460022BA
:103CB00000211846FFF720FB034619465220FFF764
:103CC000F1FA5220FFF7D0FA0023BB611D4BFB61D4
:103CD00000233B6200237B620023BB620C23FB6258
:103CE00000233B6300237B6307F118031946164842
:103CF00004F098F81448FFF7D9FC00211248FFF7A8
:103D0000E5FC00211048FFF708FD0F48FFF72CFDE8
:103D10000D48FFF7BBFC00BF0B48FFF73BFD034618
:103D2000002BF9D00848FFF749FD0346002BF3D0DC
:103D300000BF00BF3837BD4680BD00BF0800000788
:103D40000010025840420F000078004080B500AFDC
:103D5000224B234A1A60214B4FF4E1325A601F4B29
:103D600000229A601D4B0022DA601C4B00221A616F
:103D70001A4B0C225A61194B00229A61174B0022F0
:103D8000DA61164B00221A62144B00225A62134B5E
:103D900000229A62114801F0B5FC0346002B01D0C5
:103DA00000F0CCF800210D4802F04AFD0346002B3C
:103DB00001D000F0C3F80021084802F07FFD03465F
:103DC000002B01D000F0BAF8044802F000FD0346D1
:103DD000002B01D000F0B2F800BF80BD3404001009
:103DE0000010014080B586B000AF3B4600221A604B
:103DF0005A609A60DA601A615A611020FFF774FB0A
:103E00002020FFF771FB0120FFF76EFB0820FFF772
:103E10006BFB0420FFF768FB4020FFF765FB0220E7
:103E2000FFF762FB08213248FFF7EAFC40213148E6
:103E3000FFF7E6FC40213048FFF7E2FC44F22201A4
:103E40002E48FFF7DDFC80212D48FFF7D9FC082321
:103E50003B6001237B600023BB600023FB600023E9
:103E60003B613B461946224802F08EFE40233B60F0
:103E700001237B600023BB600023FB6000233B61C8
:103E80003B4619461B4802F07FFE40233B6001235E
:103E90007B600023BB600023FB6000233B613B464B
:103EA0001946154802F070FE44F222033B600123DC
:103EB0007B600023BB600023FB6000233B613B462B
:103EC00019460E4802F060FE80233B6001237B60B0
:103ED0000023BB600023FB6000233B613B46194687
:103EE000074802F051FE00BF1837BD4680BD00BF35
:103EF000001002580014025800000258000C02582A
:103F00000008025880B582B000AF7860391D4FF6C6
:103F1000FF730122034801F045FC7B68184608370F
:103F2000BD4680BD3404001080B500AFFFF748FBEC
:103F30000420FFF72DFB00BF80BD000080B500AF5F
:103F4000024804F061FE00BFFDE700BF74B1100835
:103F500080B485B000AF78607B68DAB2104B134450
:103F6000FB60FB681A687B68190E7B681B0A03F00C
:103F70001F0301FA03F3DB431A407B681B0CD9B221
:103F80007B681B0A03F01F0301FA03F31A43FB6863
:103F90001A6000BF1437BD465DF8047B704700BF50
:103FA0004C44025880B582B000AF78607868FFF763
:103FB000CFFF00BF0837BD4680BD000080B483B08E
:103FC00000AF0A4BD3F8F430084A43F00203C2F8BA
:103FD000F430064BD3F8F43003F002037B607B68C7
:103FE00000BF0C37BD465DF8047B704700440258A3
:103FF00080B58AB000AF786007F1140300221A6020
:104000005A609A60DA601A617B681B681C4A9342A6
:1040100031D11C48FFF7C6FF1B4BD3F8F0301A4ACA
:1040200043F01003C2F8F030174BD3F8F03003F030
:1040300010033B613B69144BD3F8E030124A43F064
:104040000103C2F8E030104BD3F8E03003F0010375
:10405000FB60FB684FF4C0637B610223BB610023FC
:10406000FB6100233B6207237B6207F114031946BF
:10407000064800F067FC00BF2837BD4680BD00BF82
:1040800000100140080300070044025800000258D5
:1040900080B400AF00BFFDE780B400AF00BFFDE714
:1040A00080B400AF00BFFDE780B400AF00BFFDE704
:1040B00080B400AF00BFFDE780B400AF00BFBD46D5
:1040C0005DF8047B704780B400AF00BFBD465DF86B
:1040D000047B704780B400AF00BFBD465DF8047B31
:1040E000704780B500AF00F0F1FAFEF727F800BF87
:1040F00080BD80B400AF00BFBD465DF8047B704753
:1041000080B400AF01231846BD465DF8047B7047BC
:1041100080B582B000AF7860396004F0EFFE0346EE
:1041200016221A604FF0FF3318460837BD4680BD8F
:1041300080B582B000AF78604FF0FF317868FFF74C
:10414000E7FF00BFFDE780B586B000AFF860B9605B
:104150007A6000237B610AE0AFF300800146BB6810
:104160005A1CBA60CAB21A707B6901337B617A69E2
:104170007B689A42F0DB7B6818461837BD4680BDE5
:1041800080B586B000AFF860B9607A6000237B61CB
:1041900009E0BB685A1CBA601B781846FFF7B2FEEC
:1041A0007B6901337B617A697B689A42F1DB7B68CA
:1041B00018461837BD4680BD80B483B000AF786024
:1041C0004FF0FF3318460C37BD465DF8047B70474F
:1041D00080B483B000AF786039603B684FF4005220
:1041E0005A60002318460C37BD465DF8047B7047C3
:1041F00080B483B000AF7860012318460C37BD4609
:104200005DF8047B704780B485B000AFF860B9609A
:104210007A60002318461437BD465DF8047B70476A
:1042200080B586B000AF7860144A154BD31A7B6115
:104230007B693B61134B1B68002B02D1114B124A67
:104240001A60104B1A687B6813443A699A4207D285
:1042500004F054FE03460C221A604FF0FF3309E0CD
:10426000084B1B68FB60074B1A687B681344054AC0
:104270001360FB6818461837BD4680BD00800410E7
:1042800000080000E804001040060010DFF834D0F9
:10429000FCF7EAFE0C480D490D4A002302E0D45811
:1042A000C4500433C4188C42F9D30A4A0A4C002380
:1042B00001E013600432A242FBD304F025FEFFF7B5
:1042C000BBFA7047008004100000001020020010AC
:1042D00014B610082002001040060010FEE780B45B
:1042E00000AF00BFBD465DF8047B704780B400AFEF
:1042F00000BFBD465DF8047B7047000080B500AF8D
:104300000D4B1B78C3F34603DBB2032B11D801A27C
:1043100052F823F0254310082B43100831431008AE
:104320003143100800F00AF803E000F041F800E023
:1043300000BF00BF80BD00BFEC04001080B500AF1F
:104340001A4B1B7803F00103DBB2002B12D00020C4
:10435000FDF79EFE0346002B25D0144A13786FF319
:1043600000031370FFF7BBFF4FF47A710020FDF7D5
:1043700079FE18E00D4B1B7803F00103DBB2002B34
:1043800011D10020FDF784FE0346002B0BD0074A15
:10439000137843F001031370FFF7A8FF4FF47A710D
:1043A0000020FDF75FFE00BF80BD00BFEC040010E1
:1043B00080B400AF00BFBD465DF8047B70470000CD
:1043C00080B500AF084A13786FF300031370064AF4
:1043D00013786FF347031370FFF788FF034904480E
:1043E000FDF76CFE00BF80BDEC040010140000104F
:1043F0001000001080B500AF02490348FDF75EFED3
:1044000000BF80BD2C000010280000102DE9F043F3
:1044100085B000AF0023FB6050E06B461E462F4B7B
:104420001B681846FEF77CF8B860BB68FA68F96844
:104430002B4804F081FBFB68591C0B46013B7B6059
:1044400000230C461D464FF000024FF00003EB0026
:1044500043EA5473E2000023884699464FF0000275
:104460004FF000034FEAC90343EA58734FEAC8020A
:10447000CB1DDB08DB00ADEB030D6B4600333B606F
:10448000FA68B968386804F0DBFC3A68FB681344E2
:1044900000221A703868FDF777F9124804F0B4FB6F
:1044A000114B1B68112211491846FDF754FF0B4BA5
:1044B0001B68F9681846FEF782F8B546074B1B687B
:1044C0001846FEF749F8F860FB68002BA5D100BF3D
:1044D00000BF1437BD46BDE8F08300BF0C000010DC
:1044E00084B11008A0B1100808000010B0B1100885
:1044F00080B483B000AF786039607B683A689A61B5
:1045000000BF0C37BD465DF8047B704780B483B0B4
:1045100000AF786039603B681A047B689A6100BF1D
:104520000C37BD465DF8047B7047000080B500AFD6
:1045300002490348FDF7C2FD00BF80BD40000010E6
:104540003C00001080B500AF144B1B78002B12D03C
:104550000120FDF79DFD0346002B1DD00F4B0022CF
:104560001A7020210E48FFF7D1FF4FF41671012079
:10457000FDF778FD10E00120FDF78AFD0346002BD2
:104580000AD0064B01221A7020210548FFF7B0FF20
:10459000C8210120FDF766FD00BF80BDED040010BD
:1045A000000C025880B582B000AF284BD3F8D83049
:1045B000264A43F48043C2F8D830244BD3F8D8308D
:1045C00003F480433B603B68214B1B6823F47F234B
:1045D00023F470631E4A43F4014313601C4B1B68B1
:1045E0001B4A43F001031360032000F065F900F05B
:1045F000F3FB0246154B9B691B0A03F00F03154999
:10460000CB5C03F01F0322FA03F37B600F4B9B6923
:1046100003F00F030F4AD35C03F01F037A6822FAFA
:1046200003F30D4A13600C4B1B680C4A13600F20F8
:1046300000F016F80346002B01D0012302E0FFF73B
:10464000BDFC002318460837BD4680BD0044025813
:1046500000440240C4B11008040000100000001023
:1046600080B582B000AF7860154B1B78002B01D16C
:10467000012321E0134B1A68114B1B7819464FF4A4
:104680007A73B3FBF1F3B2FBF3F3184600F039F998
:104690000346002B01D001230EE07B680F2B0AD8C4
:1046A000002279684FF0FF3000F011F9064A7B686C
:1046B0001360002300E0012318460837BD4680BD83
:1046C00054000010000000105000001080B400AF33
:1046D000064B1B781A46064B1B681344044A1360AA
:1046E00000BFBD465DF8047B704700BF540000105A
:1046F000F004001080B400AF034B1B681846BD46A1
:104700005DF8047B704700BFF004001080B584B0F2
:1047100000AF7860FFF7EEFFB8607B68FB60FB6876
:10472000B3F1FF3F05D00A4B1B781A46FB681344D0
:10473000FB6000BFFFF7DEFF0246BB68D31AFA68D2
:104740009A42F7D800BF00BF1037BD4680BD00BFFA
:104750005400001080B485B000AF78607B6803F02F
:104760000703FB600C4BDB68BB60BA684FF6FF03C6
:104770001340BB60FB681A02BB68134343F0BF637E
:1047800043F40033BB60044ABB68D36000BF1437F6
:10479000BD465DF8047B704700ED00E080B400AFDB
:1047A000044BDB681B0A03F007031846BD465DF89F
:1047B000047B704700ED00E080B483B000AF034697
:1047C0003960FB80B7F90630002B0ADB3B68DAB2B0
:1047D0000C49B7F906301201D2B20B4483F800231A
:1047E0000AE03B68DAB20849FB8803F00F03043B98
:1047F0001201D2B20B441A7600BF0C37BD465DF8E9
:10480000047B704700E100E000ED00E080B489B077
:1048100000AFF860B9607A60FB6803F00703FB61E2
:10482000FB69C3F10703042B28BF0423BB61FB69A9
:104830000433062B02D9FB69033B00E000237B61B4
:104840004FF0FF32BB6902FA03F3DA43BB681A4048
:104850007B699A404FF0FF317B6901FA03F3D9433A
:104860007B680B40134318462437BD465DF8047B34
:104870007047000080B582B000AF78607B68013B74
:10488000B3F1807F01D301230FE00A4A7B68013B2B
:1048900053600F214FF0FF30FFF78EFF054B0022D2
:1048A0009A60044B07221A60002318460837BD4659
:1048B00080BD00BF10E000E080B582B000AF78603E
:1048C0007868FFF747FF00BF0837BD4680BD80B559
:1048D00086B000AF0346B9607A60FB81FFF75EFFE8
:1048E00078617A68B9687869FFF790FF0246B7F98E
:1048F0000E3011461846FFF75FFF00BF1837BD4660
:1049000080BD80B582B000AF78607868FFF7B2FFF5
:10491000034618460837BD4680BD000080B400AF8E
:10492000074B1B681B0903F00F03072B01D103235F
:1049300000E001231846BD465DF8047B704700BFC8
:1049400000ED00E080B489B000AF786039600023EA
:10495000FB61894B7B6194E13B681A680121FB692B
:1049600001FA03F313403B613B69002B00F08681A1
:104970003B685B6803F00303012B05D03B685B6871
:1049800003F00303022B30D17B689B68BB61FB699A
:104990005B00032202FA03F3DB43BA691340BB61F5
:1049A0003B68DA68FB695B0002FA03F3BA691343F8
:1049B000BB617B68BA699A607B685B68BB610122F6
:1049C000FB6902FA03F3DB43BA691340BB613B683E
:1049D0005B681B0903F00102FB6902FA03F3BA6981
:1049E0001343BB617B68BA695A603B685B6803F03C
:1049F0000303032B17D07B68DB68BB61FB695B009B
:104A0000032202FA03F3DB43BA691340BB613B683C
:104A10009A68FB695B0002FA03F3BA691343BB614E
:104A20007B68BA69DA603B685B6803F00303022BBA
:104A300023D1FB69DA087B68083253F82230BB6166
:104A4000FB6903F007039B000F2202FA03F3DB4329
:104A5000BA691340BB613B681A69FB6903F007033D
:104A60009B0002FA03F3BA691343BB61FB69DA08DE
:104A70007B680832B96943F822107B681B68BB6108
:104A8000FB695B00032202FA03F3DB43BA691340BC
:104A9000BB613B685B6803F00302FB695B0002FAE1
:104AA00003F3BA691343BB617B68BA691A603B6858
:104AB0005B6803F44033002B00F0E0802F4BD3F809
:104AC000F4302E4A43F00203C2F8F4302B4BD3F8F3
:104AD000F43003F00203FB60FB68294AFB699B0882
:104AE000023352F82330BB61FB6903F003039B00E0
:104AF0000F2202FA03F3DB43BA691340BB617B6800
:104B0000204A934252D07B681F4A934231D07B683F
:104B10001E4A93422BD07B681D4A934225D07B6866
:104B20001C4A93421FD07B681B4A934219D07B6872
:104B30001A4A934213D07B68194A93420DD07B687E
:104B4000184A934207D07B68174A934201D1092340
:104B50002DE00A232BE0082329E0072327E0062382
:104B600025E0052323E0042321E003231FE00223A3
:104B70001DE001231BE000BFC000005800440258A4
:104B800000040058000002580004025800080258AF
:104B9000000C025800100258001402580018025865
:104BA000001C025800200258002402580023FA6911
:104BB00002F0030292009340BA691343BB61384983
:104BC000FB699B080233BA6941F823204FF0B043D8
:104BD0001B68BB613B69DB43BA691340BB613B683F
:104BE0005B6803F48013002B03D0BA693B6913435D
:104BF000BB614FF0B042BB6913604FF0B0435B68DC
:104C0000BB613B69DB43BA691340BB613B685B68CE
:104C100003F40013002B03D0BA693B691343BB6153
:104C20004FF0B042BB6953607B695B68BB613B6915
:104C3000DB43BA691340BB613B685B6803F4003334
:104C4000002B03D0BA693B691343BB617B69BA6926
:104C50005A607B691B68BB613B69DB43BA691340DF
:104C6000BB613B685B6803F48033002B03D0BA69F7
:104C70003B691343BB617B69BA691A60FB69013305
:104C8000FB613B681A68FB6922FA03F3002B7FF48F
:104C900063AE00BF00BF2437BD465DF8047B70479C
:104CA0000004005880B483B000AF7860054B1A68E8
:104CB00004497B6813430B6000BF0C37BD465DF8A9
:104CC000047B70471065025880B584B000AFF8606F
:104CD0000B467A60FB72374B1B6823F001023549A3
:104CE000FB6813430B607B68002B23D1FFF716FE94
:104CF0000346032B58D12F4B1B692E4A23F0010387
:104D000013612D4B1B692C4A43F004031361BFF35D
:104D10004F8F00BFBFF36F8F00BFFB7A012B01D114
:104D200030BF00E020BF244B1B69234A23F004035B
:104D300013613CE07B68012B23D1FFF7EFFD0346B5
:104D4000012B33D11B4B5B691A4A23F002035361D9
:104D5000194B1B69184A43F004031361BFF34F8FCB
:104D600000BFBFF36F8F00BFFB7A012B01D130BFB3
:104D700000E020BF104B1B690F4A23F004031361AE
:104D800015E0FFF7CBFD0346032B06D1094B1B694A
:104D9000084A23F00403136109E0064B5B69054AE6
:104DA00023F00403536102E000BF00E000BF1037AE
:104DB000BD4680BD0048025800ED00E080B500AF60
:104DC000FFF7ACFD0346032B01D120BF01E040BF3C
:104DD00020BF00BF80BD000080B489B000AFB34BDE
:104DE0001B6903F03803182B00F2558101A252F819
:104DF00023F000BF594E1008975010089750100824
:104E000097501008975010089750100897501008A6
:104E1000975010087F4E10089750100897501008B0
:104E20009750100897501008975010089750100886
:104E300097501008854E100897501008975010088A
:104E40009750100897501008975010089750100866
:104E5000975010088B4E1008944B1B6803F02003EA
:104E6000002B09D0914B1B68DB0803F00303904A29
:104E700022FA03F3BB6111E18D4BBB610EE18D4B57
:104E8000BB610BE18C4BBB6108E1884B9B6A03F073
:104E900003037B61854B9B6A1B0903F03F033B6166
:104EA000824BDB6A03F00103FB60804B5B6BDB082A
:104EB000C3F30C03FA6802FB03F307EE903AF8EE33
:104EC000677AC7ED027A3B69002B00F0E1807B69CD
:104ED000022B00F083807B69022B00F2A1807B69AA
:104EE000002B03D07B69012B56D099E06F4B1B68D8
:104EF00003F02003002B2DD06C4B1B68DB0803F064
:104F000003036B4A22FA03F37B607B6807EE903A57
:104F1000F8EE676A3B6907EE903AF8EE677A86EE3C
:104F2000A77A624B1B6BC3F3080307EE903AF8EEC7
:104F3000676A97ED026ADFED615AC6EE257A76EE72
:104F4000A77AF7EE006A77EEA67A67EE277AC7EDC2
:104F5000077A87E03B6907EE903AF8EE677ADFED73
:104F6000586A86EEA77A514B1B6BC3F3080307EE12
:104F7000903AF8EE676A97ED026ADFED505AC6EE96
:104F8000257A76EEA77AF7EE006A77EEA67A67EED4
:104F9000277AC7ED077A65E03B6907EE903AF8EEAD
:104FA000677ADFED486A86EEA77A404B1B6BC3F346
:104FB000080307EE903AF8EE676A97ED026ADFEDB4
:104FC0003F5AC6EE257A76EEA77AF7EE006A77EEBC
:104FD000A67A67EE277AC7ED077A43E03B6907EECA
:104FE000903AF8EE677ADFED386A86EEA77A2F4BB3
:104FF0001B6BC3F3080307EE903AF8EE676A97ED70
:10500000026ADFED2E5AC6EE257A76EEA77AF7EE23
:10501000006A77EEA67A67EE277AC7ED077A21E075
:105020003B6907EE903AF8EE677ADFED266A86EE86
:10503000A77A1E4B1B6BC3F3080307EE903AF8EEFA
:10504000676A97ED026ADFED1D5AC6EE257A76EEA5
:10505000A77AF7EE006A77EEA67A67EE277AC7EDB1
:10506000077A00BF114B1B6B5B0A03F07F03013310
:105070003B603B6807EE903AB8EE677AD7ED076A77
:10508000C6EE877AFCEEE77A17EE903ABB6105E050
:105090000023BB6102E0074BBB6100BFBB69184640
:1050A0002437BD465DF8047B704700BF00440258BA
:1050B0000090D00300093D0040787D0100000046CB
:1050C0000024744C0024744A20BCBE4B80B582B0CE
:1050D00000AFFFF781FE0246114B9B691B0A03F0EC
:1050E0000F031049CB5C03F01F0322FA03F37B602C
:1050F0000B4B9B6903F00F030A4AD35C03F01F03B9
:105100007A6822FA03F3084A1360074B1B68074AC0
:105110001360054B1B6818460837BD4680BD00BFAD
:1051200000440258C4B11008040000100000001030
:1051300080B500AFFFF7CAFF0246064BDB691B09CB
:1051400003F007030449CB5C03F01F0322FA03F3C7
:10515000184680BD00440258C4B1100880B500AFA5
:10516000FFF7B4FF0246064BDB691B0A03F0070397
:105170000449CB5C03F01F0322FA03F3184680BDF9
:1051800000440258C4B1100880B500AFFFF79EFF7D
:105190000246064B1B6A1B0903F007030449CB5C5C
:1051A00003F01F0322FA03F3184680BD004402589F
:1051B000C4B1100880B489B000AF7860A14B9B6A7D
:1051C00003F00303BB619F4B9B6A1B0B03F03F0380
:1051D0007B619C4BDB6A1B0903F001033B61994B2C
:1051E000DB6BDB08C3F30C033A6902FB03F307EE46
:1051F000903AF8EE677AC7ED037A7B69002B00F0EE
:105200001181BB69022B00F08380BB69022B00F285
:10521000A180BB69002B03D0BB69012B56D099E05C
:10522000884B1B6803F02003002B2DD0854B1B6897
:10523000DB0803F00303844A22FA03F3BB60BB6874
:1052400007EE903AF8EE676A7B6907EE903AF8EE5F
:10525000677A86EEA77A7B4B9B6BC3F3080307EE56
:10526000903AF8EE676A97ED036ADFED785AC6EE7A
:10527000257A76EEA77AF7EE006A77EEA67A67EEE1
:10528000277AC7ED077A87E07B6907EE903AF8EE58
:10529000677ADFED6F6A86EEA77A6A4B9B6BC3F382
:1052A000080307EE903AF8EE676A97ED036ADFEDC0
:1052B000675AC6EE257A76EEA77AF7EE006A77EEA1
:1052C000A67A67EE277AC7ED077A65E07B6907EE75
:1052D000903AF8EE677ADFED5F6A86EEA77A594B6F
:1052E0009B6BC3F3080307EE903AF8EE676A97EDFD
:1052F000036ADFED565AC6EE257A76EEA77AF7EE08
:10530000006A77EEA67A67EE277AC7ED077A43E060
:105310007B6907EE903AF8EE677ADFED4F6A86EE2A
:10532000A77A484B9B6BC3F3080307EE903AF8EE5D
:10533000676A97ED036ADFED455AC6EE257A76EE89
:10534000A77AF7EE006A77EEA67A67EE277AC7EDBE
:10535000077A21E07B6907EE903AF8EE677ADFED95
:105360003D6A86EEA77A374B9B6BC3F3080307EEC3
:10537000903AF8EE676A97ED036ADFED345AC6EEAD
:10538000257A76EEA77AF7EE006A77EEA67A67EED0
:10539000277AC7ED077A00BF2A4B9B6B5B0A03F0A5
:1053A0007F0307EE903AF8EE677AB7EE007A37EEB1
:1053B000877AD7ED076AC6EE877AFCEEE77A17EEB2
:1053C000902A7B681A601F4B9B6B1B0C03F07F03BA
:1053D00007EE903AF8EE677AB7EE007A37EE877A02
:1053E000D7ED076AC6EE877AFCEEE77A17EE902AC9
:1053F0007B685A60134B9B6B1B0E03F07F0307EE19
:10540000903AF8EE677AB7EE007A37EE877AD7ED02
:10541000076AC6EE877AFCEEE77A17EE902A7B6879
:105420009A6008E07B6800221A607B6800225A605C
:105430007B6800229A6000BF2437BD465DF8047B7C
:10544000704700BF004402580090D003000000469F
:105450000024744C0024744A20BCBE4B80B489B034
:1054600000AF7860A14B9B6A03F00303BB619F4BC5
:105470009B6A1B0D03F03F037B619C4BDB6A1B0A9D
:1054800003F001033B61994B5B6CDB08C3F30C0336
:105490003A6902FB03F307EE903AF8EE677AC7ED3C
:1054A000037A7B69002B00F01181BB69022B00F0AD
:1054B0008380BB69022B00F2A180BB69002B03D063
:1054C000BB69012B56D099E0884B1B6803F0200381
:1054D000002B2DD0854B1B68DB0803F00303844AA7
:1054E00022FA03F3BB60BB6807EE903AF8EE676AF6
:1054F0007B6907EE903AF8EE677A86EEA77A7B4BE7
:105500001B6CC3F3080307EE903AF8EE676A97ED59
:10551000036ADFED785AC6EE257A76EEA77AF7EEC3
:10552000006A77EEA67A67EE277AC7ED077A87E0FA
:105530007B6907EE903AF8EE677ADFED6F6A86EEE8
:10554000A77A6A4B1B6CC3F3080307EE903AF8EE98
:10555000676A97ED036ADFED675AC6EE257A76EE45
:10556000A77AF7EE006A77EEA67A67EE277AC7ED9C
:10557000077A65E07B6907EE903AF8EE677ADFED2F
:105580005F6A86EEA77A594B1B6CC3F3080307EEDC
:10559000903AF8EE676A97ED036ADFED565AC6EE69
:1055A000257A76EEA77AF7EE006A77EEA67A67EEAE
:1055B000277AC7ED077A43E07B6907EE903AF8EE69
:1055C000677ADFED4F6A86EEA77A484B1B6CC3F310
:1055D000080307EE903AF8EE676A97ED036ADFED8D
:1055E000455AC6EE257A76EEA77AF7EE006A77EE90
:1055F000A67A67EE277AC7ED077A21E07B6907EE86
:10560000903AF8EE677ADFED3D6A86EEA77A374B7F
:105610001B6CC3F3080307EE903AF8EE676A97ED48
:10562000036ADFED345AC6EE257A76EEA77AF7EEF6
:10563000006A77EEA67A67EE277AC7ED077A00BF91
:105640002A4B1B6C5B0A03F07F0307EE903AF8EEDF
:10565000677AB7EE007A37EE877AD7ED076AC6EE3B
:10566000877AFCEEE77A17EE902A7B681A601F4B68
:105670001B6C1B0C03F07F0307EE903AF8EE677A81
:10568000B7EE007A37EE877AD7ED076AC6EE877AEB
:10569000FCEEE77A17EE902A7B685A60134B1B6C7E
:1056A0001B0E03F07F0307EE903AF8EE677AB7EE31
:1056B000007A37EE877AD7ED076AC6EE877AFCEE76
:1056C000E77A17EE902A7B689A6008E07B680022F0
:1056D0001A607B6800225A607B6800229A6000BFD3
:1056E0002437BD465DF8047B704700BF0044025874
:1056F0000090D003000000460024744C0024744A3B
:1057000020BCBE4B80B582B000AF78607B68002BB8
:1057100001D1012342E07B68D3F88830002B06D109
:105720007B68002283F884207868FEF761FC7B6840
:105730002422C3F888207B681B681A687B681B6872
:1057400022F001021A607B689B6A002B02D0786805
:1057500000F01EFE786800F0B3F80346012B01D17B
:1057600001231BE07B681B685A687B681B6822F476
:1057700090425A607B681B689A687B681B6822F0BD
:105780002A029A607B681B681A687B681B6842F073
:1057900001021A60786800F09DFE0346184608373B
:1057A000BD4680BD80B58AB002AFF860B9603B608D
:1057B0001346FB80FB68D3F88830202B7BD1BB6875
:1057C000002B02D0FB88002B01D1012374E0FB6881
:1057D0000022C3F89020FB682122C3F88820FEF73E
:1057E00089FF7861FB68FA88A3F85420FB68FA887F
:1057F000A3F85620FB689B68B3F5805F08D1FB686F
:105800001B69002B04D10023FB61BB68BB6103E073
:10581000BB68FB610023BB6130E03B6800937B69A0
:1058200000228021F86800F0FFFE0346002B05D01F
:10583000FB682022C3F8882003233DE0FB69002B8E
:105840000BD1BB691B881A46FB681B68C2F30802B0
:105850009A62BB690233BB6107E0FB691A78FB6897
:105860001B689A62FB690133FB61FB68B3F8563031
:105870009BB2013B9AB2FB68A3F85620FB68B3F8D1
:1058800056309BB2002BC8D13B6800937B69002245
:105890004021F86800F0C8FE0346002B05D0FB68E5
:1058A0002022C3F88820032306E0FB682022C3F8E7
:1058B0008820002300E0022318462037BD4680BD23
:1058C0002DE9B04F92B000AF7861002387F84230E5
:1058D0007B699A687B691B691A437B695B691A4318
:1058E0007B69DB6913437B647B691B681A68BD4B6A
:1058F00013407A691268796C0B4313607B691B68EB
:105900005B6823F440517B69DA687B691B680A4352
:105910005A607B699B697B647B691B68B24A9342CE
:1059200004D07B691B6A7A6C13437B647B691B68B8
:105930009B6823F06E4323F430637A691268796CB4
:105940000B4393607B691B68DB6A23F00F017B6963
:105950005A6A7B691B680A43DA627B691B68A34A3F
:10596000934277D1A24B5B6D03F03803282B6DD89F
:1059700001A252F823F000BF1D5A10084D5A10081A
:105980004D5A10084D5A10084D5A10084D5A10081B
:105990004D5A10084D5A1008255A10084D5A100833
:1059A0004D5A10084D5A10084D5A10084D5A1008FB
:1059B0004D5A10084D5A10082D5A10084D5A10080B
:1059C0004D5A10084D5A10084D5A10084D5A1008DB
:1059D0004D5A10084D5A1008355A10084D5A1008E3
:1059E0004D5A10084D5A10084D5A10084D5A1008BB
:1059F0004D5A10084D5A10083D5A10084D5A1008BB
:105A00004D5A10084D5A10084D5A10084D5A10089A
:105A10004D5A10084D5A1008455A1008012387F8AE
:105A2000433020E2042387F843301CE2082387F840
:105A3000433018E2102387F8433014E2202387F81C
:105A4000433010E2402387F843300CE2802387F88C
:105A5000433008E27B691B68664A934230D1644B4D
:105A60005B6D03F00703052B26D801A252F823F043
:105A7000895A1008915A1008995A1008A15A10080A
:105A8000A95A1008B15A1008002387F84330EAE1F8
:105A9000042387F84330E6E1082387F84330E2E146
:105AA000102387F84330DEE1202387F84330DAE122
:105AB000402387F84330D6E1802387F84330D2E192
:105AC0007B691B684C4A934230D1494B5B6D03F0B4
:105AD0000703052B26D801A252F823F0F55A100827
